________________________________________________________________________________________________________________________
 LABEL  0XALGOL 0COMPILE00184320?COMPILE DIRCHLT/B5500 XALGOL GO                                         XALGOL /DIRCHLT
________________________________________________________________________________________________________________________

                      BURROUGHS B-5700 XALGOL COMPILER MARK XIII.0   THURSDAY, 11/15/84,  12:38 PM.


                % DIRICHLET PROBLEM FOR A BEAN-SHAPED REGION.  FROM P J DAVIS,                  00100100    0000
                % "ORTHONORMALIZING CODES IN NUMERICAL ANALYSIS" IN J TODD, --SURVEY OF         00100200    0000
                % NUMERICAL ANLAYSIS--, MCGRAW-HILL, 1962,  P.347. P H KIMPEL 8/15/70           00100300    0000
                % MODIFICATION LOG:                                                             00100320    0000
                % 92/03/17  P.KIMPEL, PARADIGM CORP, SAN DIEGO, CA  92117.                      00100321    0000
                %   CONVERT FOR UNISYS A-SERIES MCP 3.8.4.                                      00100322    0000
                % 2014-11-15  P.KIMPEL                                                          00100330    0000
                %   RETRO-CONVERT FROM UNISYS MCP ALGOL TO BURROUGHS B5500 XALGOL.              00100331    0000
                                                                                                00100398    0000
                BEGIN                                                                           00100400    0000
                                                                                        START OF SEGMENT **********    2
                FILE IN CDS (1,10);                                                             00100500    0000
                FILE OUT PR 18 (2,17);                                                          00100600    0003
                FORMAT F1 (X30,I3,2F10.3,4F10.5),                                               00100700    0007
                                                                                        START OF SEGMENT **********    3
                       F2 (X40,"X",X9,"Y",X9,"W",X8,"BV",X7,"CBV,",X7,"DEV"),                   00100800    0007
                       FT (///X40,"PROCESSOR TIME: ", F6.2," SEC");                             00100900    0007
                                                                                           3 IS   34 LONG, NEXT SEG    2
                DEFINE N = 43#,  M = 11#,  P = 11#,  N1 = 42#,  M1 = 10#,  P1 = 10#;            00101000    0007
                LABEL QUIT;                                                                     00101100    0007
                INTEGER I, J;                                                                   00101200    0007
                INTEGER STARTT;                                                                 00101210    0007
                REAL SUM, GMDT;                                                                 00101300    0007
                ARRAY                                                                           00101400    0007
                  X,                      % ABSCISSA VALUES.                                    00101500    0007
                  Y,                      % ORDINATE VALUES.                                    00101600    0007
                  W,                      % WEIGHTS.                                            00101700    0007
                  CBV[0:N1],              % BOUNDARY VALUES CALCULATED FROM ORTHO COEFS.        00101800    0008
                  BV[0:0, 0:N1+P],        % GIVEN BOUNDARY VALUES.                              00101900    0009
                  Z[0:M1, 0:N1+P],        % APPROXIMATING VECTORS.                              00102000    0013
                  ORTHV[0:M, 0:N1+P],     % ORTHONORMAL VECTORS RETURNED BY "ORTHO"             00102100    0016
                  DEV[0:0, 0:N1],         % DEVIATIONS.                                         00102200    0020
                  COF[0:0, 0:P1],         % COEFFICIENTS.                                       00102300    0022
                  STD[0:0],               % STANDARD DEVIATION.                                 00102400    0024
                  CV[0:P, 0:P1],          % COVARIANCE MATRIX.                                  00102500    0026
                  VCV[0:0, 0:P, 0:P1],    % VARIANCE/COVARIANCE MATRIX.                         00102600    0028
                  Q[0:0, 0:M],            % FOURIER COEFFICIENTS.                               00102700    0030
                  Q2,                     % SQUARED FOURIER COEFFICIENTS.                       00102800    0032
                  E,                      % SUM OF SQUARED RESIDUALS.                           00102900    0032
                  EP[0:0, 0:M1],          % RESIDUALS.                                          00103000    0032
                  A[0:M1, 0:P1],          % LOWER TRIANGULAR MATRIX USED TO CALC CV.            00103100    0034
                  GF[0:M],                % GRAM FACTORS.                                       00103200    0036
                  ENF[0:M1];              % NORMS OF THE APPROXIMATING VECTORS.                 00103300    0038
                %***********************************************************************        00103400    0040
                PROCEDURE ORTHO (W, Y, Z, N, FN, M, P, R, AI, AUI, MUI, ZEI, X, DEV,            00103500    0040
                                 COF, STD, CV, VCV, GMDT, Q, Q2, E, EP, A, GF, ENF);            00103600    0040
                VALUE  N, M, P, R, AI, AUI, MUI, ZEI;                                           00103700    0040
                REAL  FN, GMDT;                                                                 00103800    0040
                REAL ARRAY STD, GF,  W, ENF [1];                                                00103900    0040
                REAL ARRAY     Y, Z, X, DEV, COF, CV, Q, Q2, E, EP, A [1, 1];                   00104000    0040
                REAL ARRAY VCV [1, 1, 1];                                                       00104100    0040
                INTEGER  N, M, P, R, AI, AUI, ZEI, MUI;                                         00104200    0040
                COMMENT                                                                         00104300    0040
                          ORTHO    IS TAKEN FROM ACM ALGORITHM 127 [COMM. ACM, VOL.5,           00104400    0040
                                 OCTOBER 1962, P. 511, AUTHOR: PHILIP J. WALSH];                00104500    0040
                BEGIN                                                                           00104600    0040
                INTEGER  NPP, NPM, M1, N2, M2, R1, RBAR, P2, BEI, RHI, I18, GAI, SII, I,        00104700    0040
                                                                                        START OF SEGMENT **********    4
                                 J, DEI, NUI, E1Z2, E1Z1, K, THI, ALI, OMI, NII;                00104800    0000
                REAL ARRAY  PK, XP [1:N+P], QK[1:M+1];                                          00104900    0000
                REAL DENOM, SUM, DK2, DK, FI, SS, SSQ;                                          00105000    0008
                LABEL   BOX1, AT1, AT2, BOX2, AU1, AU2, BOX3, BOX4, BOX5, BOX6, MU1,            00105100    0008
                      MU2, BOX7, OM1, OM2, BOX8, DE1, BOX8A, BOX8B, DE2, BOX8C, BOX8D,          00105200    0008
                      BOX9, TH1, TH2, TH3, BOX10, AL1, AL2, BOX11, NU1, NU2, BOX12,             00105300    0008
                      BE1, BE2, BOX13, GA1, GA2, BOX14, RH1, ZE1, ZE2, RH2, SI1, SI2,           00105400    0008
                      FINAL;                                                                    00105500    0008
                SWITCH AT := AT1, AT2;    SWITCH ZE := ZE1, ZE2;                                00105600    0008
                SWITCH AU := AU1, AU2;    SWITCH MU := MU1, MU2;                                00105700    0018
                SWITCH  BE := BE1, BE2;  SWITCH  RH := RH1, RH2;  SWITCH GA := GA1, GA2;        00105800    0028
                SWITCH  SI := SI1, SI2;  SWITCH  DE := DE1, DE2;  SWITCH  NU := NU1, NU2        00105900    0041
                ;                                                                               00106000    0056
                SWITCH  TH := TH1, TH2, TH3;  SWITCH AL := AL1, AL2;                            00106100    0058
                SWITCH  OM := OM1, OM2;                                                         00106200    0068
                      NPP := N+P; NPM := N+M; M1 := M-1; N2 := N+1; M2 := M+1;                  00106300    0073
                          R1 := 0; RBAR := R; P2 := P+1; DENOM := IF N=M THEN 1.0               00106400    0080
                                 ELSE SQRT(N-M);  BEI := RHI := I18 := 1;                       00106500    0083
                      IF (P NEQ 0) THEN GAI := SII := 2  ELSE  GAI := SII := 1;                 00106600    0088
                BOX1:            GO TO AT[AI];                                                  00106700    0094
                      AT1:       FOR J := 1 STEP 1 UNTIL N DO BEGIN                             00106800    0097
                                 X[2,J] := Z[1,J];  X[1,J] := 1.0 END;                          00106900    0098
                                 FOR I := 2 STEP 1 UNTIL M1 DO BEGIN                            00107000    0108
                                 FOR J := 1 STEP 1 UNTIL N DO                                   00107100    0110
                                 X[I+1,J] := X[I,J] × X[2,J]  END;   GO TO BOX2;                00107200    0111
                      AT2:       FOR I := 1 STEP 1 UNTIL M DO BEGIN                             00107300    0124
                                 FOR J := 1 STEP 1 UNTIL N DO                                   00107400    0125
                                 X[I,J] := Z[I,J]  END;                                         00107500    0126
                BOX2:            IF P = 0 THEN GO TO BOX3  ELSE  GO TO AU[AUI];                 00107600    0135
                      AU1:       FOR I := 1 STEP 1 UNTIL M DO BEGIN                             00107700    0139
                                 FOR J := N2 STEP 1 UNTIL NPP DO                                00107800    0141
                                 X[I,J] := 0.0;  X[I,N+I] := 1.0  END;  GO TO BOX3;             00107900    0142
                      AU2:       FOR I := 1 STEP 1 UNTIL M DO BEGIN                             00108000    0155
                                 FOR J := N2 STEP 1 UNTIL NPP DO                                00108100    0156
                                 X[I,J] := Z[I,J]  END;                                         00108200    0157
                BOX3:            DEI := NUI := E1Z1 := E1Z2 := K := 1;                          00108300    0166
                BOX4:            THI := 1;                                                      00108400    0169
                BOX5:            ALI := OMI := 1;  IF P = 0 THEN GO TO BOX6  ELSE               00108500    0170
                                 FOR J := 1 STEP 1 UNTIL P DO PK[N+J] := 0.0;                   00108600    0173
                BOX6:            GO TO MU[MUI];                                                 00108700    0179
                      MU1:       FOR I := 1 STEP 1 UNTIL N DO PK[I] := X[K,I];                  00108800    0182
                                 GO TO BOX7;                                                    00108900    0189
                      MU2:       FOR I := 1 STEP 1 UNTIL N DO                                   00109000    0189
                                 PK[I] := X[K,I] × W[I];   GO TO BOX7;                          00109100    0191
                BOX7:            GO TO OM[OMI];                                                 00109200    0198
                      OM1:       FOR I := 1 STEP 1 UNTIL K DO BEGIN SUM := 0.0;                 00109300    0201
                                 FOR J := 1 STEP 1 UNTIL NPP DO                                 00109400    0202
                                 SUM := SUM + PK[J] × X[I,J];  QK[I] := SUM END;                00109500    0204
                                 GO TO BOX8;                                                    00109600    0214
                      OM2:       DK2 := 0.0;  FOR I := 1 STEP 1 UNTIL NPP DO                    00109700    0215
                                 DK2 := DK2 + PK[I] × X[K,I];                                   00109800    0218
                                 DK := SQRT(DK2);                                               00109900    0224
                                 GF[I18] := DK;   I18 := I18 + 1;                               00110000    0226
                                 FOR I := 1 STEP 1 UNTIL NPP DO                                 00110100    0229
                                 X[K,I] := X[K,I]/DK;;                                          00110200    0230
                                 OMI := 1;    GO TO BOX6;                                       00110300    0237
                BOX8:            GO TO DE[DEI];                                                 00110400    0239
                      DE1:       E1Z1 := -E1Z1;   IF E1Z1 < 0 THEN GO TO BOX8B   ELSE           00110500    0241
                                 GO TO BOX8A;                                                   00110600    0242
                BOX8A:           FOR I := 1 STEP 1 UNTIL K-1 DO                                 00110700    0243
                                 QK[I] := -QK[I];   QK[K] := 1.0;                               00110800    0248
                                 FOR I := 1 STEP 1 UNTIL NPP DO BEGIN                           00110900    0253
                                 SUM := 0.0;  FOR J := 1 STEP 1 UNTIL K DO                      00111000    0255
                                 SUM := SUM + X[J,I] × QK[J];                                   00111100    0257
                                 XP[I] := SUM END;  GO TO BOX9;                                 00111200    0263
                BOX8B:           ENF[I18] := SQRT(QK[K]);   GO TO BOX8A;                        00111300    0268
                      DE2:       E1Z2 := -E1Z2;  IF E1Z2 < 0 THEN GO TO BOX8C  ELSE             00111400    0272
                                 GO TO BOX8A;                                                   00111500    0274
                BOX8C:           FOR I := 1 STEP 1 UNTIL M DO BEGIN                             00111600    0275
                                 Q[R1,I] := QK[I];  Q2[R1,I] := QK[I] × QK[I]  END;             00111700    0277
                                 Q[R1,M2] := QK[M2];  E[R1,1] := Q[R1,M2] - Q2[R1,1];           00111800    0288
                                 FOR J := 2 STEP 1 UNTIL M DO                                   00111900    0299
                                 E[R1,J] := E[R1,J-1] - Q2[R1,J];                               00112000    0300
                                 FI := 1.0;                                                     00112100    0310
                                 FOR I := 1 STEP 1 UNTIL M DO BEGIN                             00112200    0311
                                 IF (FN - FI) > 0.0 THEN BEGIN IF E[R1,I] < 0.0 THEN            00112300    0313
                                 BEGIN EP[R1,I] := -SQRT(ABS(E[R1,I])/(FN - FI));               00112400    0317
                                 GO TO BOX8D;    END                                            00112500    0325
                                 ELSE  EP[R1,I] := SQRT(E[R1,I]/(FN - FI));                     00112600    0325
                                 GO TO BOX8D;  END  ELSE  E[R1,I] := -1.0;                      00112700    0332
                BOX8D:           FI := FI + 1.0;   END;   GO TO BOX8A;                          00112800    0336
                BOX9:            GO TO TH[THI];                                                 00112900    0342
                      TH1:       FOR I := 1 STEP 1 UNTIL NPP DO                                 00113000    0344
                                 X[K,I] := XP[I];  GO TO BOX10;                                 00113100    0345
                      TH2:       FOR I := 1 STEP 1 UNTIL N DO                                   00113200    0351
                                 DEV[R1,I] := XP[I];                                            00113300    0353
                                 FOR I := 1 STEP 1 UNTIL P DO                                   00113400    0359
                                 COF[R1,I] := -XP[N+I];  THI := 3;  GO TO TH1;                  00113500    0360
                      TH3:       GO TO BOX11;                                                   00113600    0368
                BOX10:           GO TO AL[ALI];                                                 00113700    0368
                      AL1:       OMI := ALI := 2;  GO TO BOX6;                                  00113800    0371
                      AL2:       IF K < M THEN BEGIN K := K + 1;  GO TO BOX4;  END              00113900    0372
                                 ELSE  GO TO BOX12;                                             00114000    0376
                BOX11:           GO TO NU[NUI];                                                 00114100    0376
                      NU1:       NUI := 2;  GO TO BOX14;                                        00114200    0378
                      NU2:       SS := DK/DENOM;  SSQ := SS × SS;                               00114300    0379
                                 STD[R1] := SS;  GO TO BOX14;                                   00114400    0382
                BOX12:           GO TO BE[BEI];                                                 00114500    0384
                      BE1:       FOR I := 1 STEP 1 UNTIL M DO BEGIN                             00114600    0387
                                 FOR J := 1 STEP 1 UNTIL P DO                                   00114700    0388
                                 A[I,J] := X[I,N+J]  END;                                       00114800    0389
                                 GMDT := 1.0;  FOR I := 1 STEP 1 UNTIL M DO                     00114900    0399
                                 GMDT := GMDT × (GF[I]/ENF[I]);                                 00115000    0402
                                 GMDT := GMDT × GMDT;  DEI := BEI := THI := 2;                  00115100    0407
                                 K := K + 1;       GO TO BOX13;                                 00115200    0411
                      BE2:       GO TO BOX11;                                                   00115300    0412
                BOX13:           GO TO GA[GAI];                                                 00115400    0413
                      GA1:       GO TO BOX11;                                                   00115500    0416
                      GA2:       FOR I := 1 STEP 1 UNTIL P DO BEGIN                             00115600    0416
                                 FOR J := I STEP 1 UNTIL P DO BEGIN                             00115700    0418
                                 SUM := 0.0;                                                    00115800    0419
                                 FOR NII := 1 STEP 1 UNTIL M DO                                 00115900    0419
                                 SUM := SUM + A[NII,I] × A[NII,J];                              00116000    0421
                                 CV[I,J] := SUM  END  END;                                      00116100    0429
                                 FOR I := 1 STEP 1 UNTIL P DO                                   00116200    0436
                                 CV[P2,I] := SQRT(CV[I,I]);  GAI := 1;  GO TO BOX11;            00116300    0438
                BOX14:           GO TO RH[RHI];                                                 00116400    0447
                      RH1:       IF RBAR = 0 THEN GO TO FINAL  ELSE  RBAR := RBAR - 1;          00116500    0449
                                 R1 := R1 + 1;  THI := RHI := 2;  GO TO ZE[ZEI];                00116600    0451
                      ZE1:       FOR I := 1 STEP 1 UNTIL N DO                                   00116700    0456
                                 X[M2,I] := Y[R1,I];                                            00116800    0457
                                 FOR I := 1 STEP 1 UNTIL P DO                                   00116900    0464
                                 X[M2,N+I] := 0.0;  GO TO BOX5;                                 00117000    0465
                      ZE2:       FOR I := 1 STEP 1 UNTIL NPP DO                                 00117100    0471
                                 X[M2,I] := Y[R1,I];   GO TO BOX5;                              00117200    0473
                      RH2:       GO TO SI[SII];                                                 00117300    0480
                      SI1:       GO TO RH1;                                                     00117400    0483
                      SI2:       FOR I := 1 STEP 1 UNTIL P DO BEGIN                             00117500    0483
                                 FOR J := I STEP 1 UNTIL P DO                                   00117600    0485
                                 VCV[R1,I,J] := SSQ × CV[I,J]  END;                             00117700    0486
                                 FOR I := 1 STEP 1 UNTIL P DO                                   00117800    0497
                                 VCV[R1, P2, I] := SS × CV[P2,I];  GO TO RH1;                   00117900    0498
                FINAL:  END  ORTHO ;                                                            00118000    0507
                                                                                           4 IS  520 LONG, NEXT SEG    2
                %***********************************************************************        00118100    0040
                REAL PROCEDURE G (I, X, Y);                                                     00118200    0040
                  VALUE I, X, Y;   REAL X, Y;   INTEGER I;                                      00118300    0040
                  CASE (I - 1) OF                                                               00118400    0040
                    BEGIN                                                                       00118500    0041
                      G := 1;                                                        % 1        00118600    0042
                      G := X;                                                        % 2        00118700    0043
                      G := Y;                                                        % 3        00118800    0044
                      G := X*2 - Y*2;                                                % 4        00118900    0046
                      G := 2.0 × X × Y;                                              % 5        00119000    0048
                      G := X*3 - 3.0 × X × Y*2;                                      % 6        00119100    0051
                      G := 3.0 × X*2 × Y - Y*3;                                      % 7        00119200    0055
                      G := X*4 + Y*4 - 6.0 × X*2 × Y*2;                              % 8        00119300    0059
                      G := 4.0 × X*3 × Y - 4.0 × X × Y*3;                            % 9        00119400    0065
                      G := X*5 - 10.0 × X*3 × Y*2 + 5.0 × X × Y*4;                   %10        00119500    0071
                      G := Y*5 - 10.0 × Y*3 × X*2 + 5.0 × Y × X*4;                   %11        00119600    0079
                      G := X*6 - 15.0 × X*4 × Y*2 + 15.0 × X*2 × Y*4 - Y*6;          %12        00119700    0088
                      G := 6.0 × X*5 × Y + 6.0 × X × Y*5 - 20.0 × X*3 × Y*3;         %13        00119800    0098
                      G := X*7 - 21.0 ×X*5 × Y*2 + 35.0 × X*3 × Y*4  - 7.0 × X ×     %14        00119900    0109
                      Y*6;                                                                      00120000    0119
                      G := 7.0 ×X*6 × Y - 35.0 × X*4 × Y*3 + 21.0 × X*2 × Y*5 -      %15        00120100    0122
                      Y*7;                                                                      00120200    0132
                      G := X*8 + Y*8 - 28.0 ×X*6 × Y*2 + 70.0 × X*4 × Y*4 - 28.0                00120300    0135
                              × X*2 × Y*6;                                           %16        00120400    0146
                      G := 8.0 × X*7 ×Y - 56.0 × X*5 × Y*3 + 56.0 × X*3 × Y*5                   00120500    0150
                              - 8.0 ×X × Y*7;                                        %17        00120600    0174
                  END G;                                                                        00120700    0180
                                                                                        START OF SEGMENT **********    5
                                                                                           5 IS   17 LONG, NEXT SEG    2
                                                                                                00120780    0185
                STARTT := TIME(1);                                                              00120790    0185
                FOR I := 0 STEP 1 UNTIL N1 DO                                                   00120800    0187
                  BEGIN                                                                         00120900    0188
                    READ (CDS,  /, X[I], Y[I], W[I]);                                           00121000    0188
                    BV[0,I] := EXP(X[I]) × COS(Y[I]) + LN((1 - Y[I])*2 + X[I]*2);               00121100    0199
                    FOR J := 0 STEP 1 UNTIL M1 DO                                               00121200    0207
                        Z[J,I] := G(J+1, X[I], Y[I]);                                           00121300    0208
                  END;                                                                          00121400    0214
                CLOSE (CDS);                                                                    00121500    0216
                ORTHO (W, BV, Z, N , N , M , P,  1, 2, 1, 2, 1, ORTHV, DEV, COF, STD,           00121600    0218
                          CV, VCV, GMDT, Q, Q2, E, EP, A, GF, ENF);                             00121700    0228
                FOR I := 0 STEP 1 UNTIL N1 DO                                                   00121800    0237
                  BEGIN  SUM := 0;                                                              00121900    0238
                    FOR J:=0 STEP 1 UNTIL M1 DO  SUM := SUM + COF[0,J]×G(J+1, X[I], Y[I]        00122000    0238
                    );                                                                          00122100    0243
                    CBV[I] := SUM;                                                              00122200    0247
                  END;                                                                          00122300    0248
                WRITE (PR[DBL], F2);                                                            00122400    0250
                WRITE (PR, F1, FOR I := 0 STEP 1 UNTIL N1 DO [I,X[I],Y[I],W[I], BV[0,I],        00122500    0253
                                 CBV[I], (CBV[I]-BV[0,I])]);                                    00122600    0266
                WRITE (PR, FT, TIME(2)/60);                                                     00122700    0277
                QUIT:                                                                           00122800    0287
                BEGIN                                                                           00122900    0288
                    COMMENT INNER BLOCK;                                                        00123000    0288
                %%%%%%%%%%%%%%%%%%%%%%%%%%%%%%%%%%%%%%%%%%%%%%%%%%%%%%%%%%%%%%%%%%%%%%%%        00123100    0288
                PROCEDURE DMMP (NAME, ROW, SZ);                                                 00123200    0288
                                                                                        START OF SEGMENT **********    6
                    VALUE NAME, SZ;                                                             00123300    0000
                    ALPHA NAME, SZ;                                                             00123400    0000
                    ARRAY ROW[0];                                                               00123500    0000
                    BEGIN                                                                       00123600    0000
                    REAL                                                                        00123700    0000
                                                                                        START OF SEGMENT **********    7
                    I,                                                                          00123800    0000
                    UB;                                                                         00123900    0000
                FORMAT                                                                          00124000    0000
                    F (A6," = ",/*(6E20.11,/));                                                 00124100    0000
                                                                                        START OF SEGMENT **********    8
                                                                                           8 IS   10 LONG, NEXT SEG    7
                    UB := SZ-1;                                                                 00124200    0000
                    WRITE (PR[DBL]);                                                            00124300    0001
                    WRITE (PR[DBL]);                                                            00124310    0005
                    WRITE (PR, F, NAME, (SZ+5)DIV 6,                                            00124400    0009
                        FOR I:=0 STEP 1 UNTIL UB DO ROW[I]);                                    00124410    0017
                    END DMMP;                                                                   00124500    0025
                                                                                           7 IS   28 LONG, NEXT SEG    6
                %%%%%%%%%%%%%%%%%%%%%%%%%%%%%%%%%%%%%%%%%%%%%%%%%%%%%%%%%%%%%%%%%%%%%%%%        00124600    0000
                ARRAY NR[0:99];                                                                 00124700    0000
                FOR I := 0 STEP 1 UNTIL 99 DO                                                   00124800    0002
                    REPLACE POINTER(NR[I])+6 BY I FOR 2 DIGITS;                                 00124900    0004
                                                                                                00125000    0014
                DMMP ("X     ", X, N1+1);                                                       00125100    0014
                DMMP ("Y     ", Y, N1+1);                                                       00125200    0016
                DMMP ("W     ", W, N1+1);                                                       00125300    0018
                DMMP ("CBV   ", CBV, N1+1);                                                     00125400    0020
                DMMP ("BV    ", BV[0,*], N1+P+1);                                               00125500    0023
                FOR I := 0 STEP 1 UNTIL M1 DO                                                   00125600    0026
                    BEGIN                                                                       00125700    0032
                    SUM := "Z     " & NR[I] [11:12];                                            00125800    0032
                    DMMP (SUM, Z[I,*], N1+P+1);                                                 00125900    0034
                    END;                                                                        00126000    0037
                FOR I := 0 STEP 1 UNTIL M DO                                                    00126100    0039
                    BEGIN                                                                       00126200    0041
                    SUM := "ORTHV " & NR[I] [11:12];                                            00126300    0041
                    DMMP (SUM, ORTHV[I,*], N1+P+1);                                             00126400    0043
                    END;                                                                        00126500    0046
                DMMP ("DEV   ", DEV[0,*], N1+1);                                                00126600    0048
                DMMP ("COF   ", COF[0,*], P1+1);                                                00126700    0050
                DMMP ("STD   ", STD, 1);                                                        00126800    0053
                FOR I := 0 STEP 1 UNTIL P DO                                                    00126900    0055
                    BEGIN                                                                       00127000    0060
                    SUM := "CV    " & NR[I] [11:12];                                            00127100    0060
                    DMMP (SUM, CV[I,*], P1+1);                                                  00127200    0062
                    END;                                                                        00127300    0064
                FOR I := 0 STEP 1 UNTIL P DO                                                    00127400    0066
                    BEGIN                                                                       00127500    0069
                    SUM := "VCV   " & NR[I] [11:12];                                            00127600    0069
                    DMMP (SUM, VCV[0,I,*], P1+1);                                               00127700    0071
                    END;                                                                        00127800    0074
                DMMP ("EP    ", EP[0,*], M1+1);                                                 00127900    0076
                FOR I := 0 STEP 1 UNTIL M1 DO                                                   00128000    0079
                    BEGIN                                                                       00128100    0082
                    SUM := "A     " & NR[I] [11:12];                                            00128200    0082
                    DMMP (SUM, A[I,*], P1+1);                                                   00128300    0084
                    END;                                                                        00128400    0086
                DMMP ("GF    ", GF, M+1);                                                       00128500    0088
                DMMP ("Q     ", Q[0,*], M+1);                                                   00128600    0091
                DMMP ("Q2    ", Q2[0,*], M1+1);                                                 00128700    0093
                DMMP ("E     ", E[0,*], M1+1);                                                  00128800    0096
                DMMP ("ENF   ", ENF, M1+1);                                                     00128900    0098
                END INNER BLOCK;                                                                00129000    0100
                                                                                           6 IS  110 LONG, NEXT SEG    2
                WRITE (PR, </,"ELAPSED=",F8.2,", PROCESSOR=",F8.2,", I/O=",F8.2," SEC">,        00129080    0289
                        (TIME(1)-STARTT)/60, TIME(2)/60, TIME(3)/60);                           00129090    0290
                                                                                           9 IS   13 LONG, NEXT SEG    2
                  END.                                                                          00129100    0305
                                                                                           2 IS  308 LONG, NEXT SEG    1
                                                                                           1 IS    2 LONG, NEXT SEG    0
                                                                                          21 IS   69 LONG, NEXT SEG    0
NUMBER OF ERRORS DETECTED =   0.  COMPILATION TIME =   24 SECONDS.

PRT SIZE =  71; TOTAL SEGMENT SIZE =  1111 WORDS; DISK SIZE =  49 SEGS; NO. PGM. SEGS =  21

ESTIMATED CORE STORAGE REQUIRED =  6724 WORDS.

ESTIMATED AUXILIARY MEMORY REQUIRED =     0 WORDS.


________________________________________________________________________________________________________________________
 LABEL  0XALGOL 0COMPILE00184320?COMPILE DIRCHLT/B5500 XALGOL GO                                         XALGOL /DIRCHLT
________________________________________________________________________________________________________________________
________________________________________________________________________________________________________________________
 LABEL  000000000PR     00184320?COMPILE DIRCHLT/B5500 XALGOL GO                                         DIRCHLT/B5500
________________________________________________________________________________________________________________________

                                        X         Y         W        BV       CBV,       DEV

                                0     0.000     0.110   0.01414   0.76089   0.76399   0.00310
                                1    -0.050     0.108   0.01427   0.72025   0.72348   0.00323
                                2    -0.100     0.115   0.01963   0.66721   0.67049   0.00327
                                3    -0.160     0.150   0.02300   0.55236   0.55576   0.00340
                                4    -0.220     0.205   0.03897   0.40068   0.40386   0.00319
                                5    -0.320     0.300   0.02792   0.17014   0.17015   0.00001
                                6    -0.400     0.358   0.03324   0.06949   0.06500  -0.00449
                                7    -0.500     0.420   0.01483   0.02006   0.01360  -0.00647
                                8    -0.550     0.436   0.01423   0.04590   0.04344  -0.00246
                                9    -0.600     0.430   0.01505   0.12037   0.12444   0.00408
                               10    -0.644     0.400   0.01483   0.22850   0.23541   0.00691
                               11    -0.660     0.350   0.01420   0.33248   0.33513   0.00265
                               12    -0.655     0.300   0.02881   0.41180   0.41041  -0.00139
                               13    -0.635     0.200   0.03043   0.56169   0.55792  -0.00377
                               14    -0.595     0.100   0.03076   0.70069   0.69969  -0.00100
                               15    -0.552     0.000   0.03311   0.84177   0.84369   0.00192
                               16    -0.500    -0.105   0.03175   0.98915   0.99146   0.00231
                               17    -0.440    -0.200   0.01809   1.12198   1.12185  -0.00013
                               18    -0.400    -0.250   0.01998   1.19326   1.19145  -0.00180
                               19    -0.350    -0.300   0.01882   1.26792   1.26504  -0.00288
                               20    -0.300    -0.344   0.03140   1.33734   1.33459  -0.00275
                               21    -0.204    -0.400   0.03450   1.44505   1.44501  -0.00003
                               22    -0.100    -0.436   0.02846   1.54875   1.55126   0.00251
                               23     0.000    -0.448   0.02831   1.64168   1.64342   0.00174
                               24     0.100    -0.442   0.03860   1.73582   1.73434  -0.00148
                               25     0.230    -0.400   0.02431   1.85882   1.85513  -0.00370
                               26     0.300    -0.350   0.02059   1.91643   1.91502  -0.00141
                               27     0.353    -0.300   0.03566   1.95563   1.95689   0.00126
                               28     0.430    -0.200   0.03122   1.99206   1.99507   0.00301
                               29     0.477    -0.100   0.02975   1.96611   1.96579  -0.00032
                               30     0.510     0.000   0.02846   1.89648   1.89241  -0.00407
                               31     0.522     0.100   0.01696   1.75623   1.75328  -0.00295
                               32     0.520     0.160   0.02330   1.63625   1.63683   0.00058
                               33     0.500     0.240   0.02102   1.41224   1.41798   0.00574
                               34     0.456     0.300   0.01795   1.14765   1.15160   0.00394
                               35     0.400     0.330   0.01147   0.91523   0.91269  -0.00254
                               36     0.360     0.337   0.01762   0.78913   0.78354  -0.00558
                               37     0.300     0.320   0.01648   0.68785   0.68274  -0.00511
                               38     0.250     0.290   0.01901   0.66231   0.65991  -0.00239
                               39     0.300     0.245   0.01901   0.89407   0.89251  -0.00156
                               40     0.150     0.200   0.01809   0.72694   0.72885   0.00191
                               41     0.100     0.160   0.01677   0.75642   0.75909   0.00267
                               42     0.050     0.128   0.01501   0.77202   0.77499   0.00297


                                        PROCESSOR TIME:   6.20 SEC


X      =
   0.00000000000@+00  -5.00000000000@-02  -1.00000000000@-01  -1.60000000001@-01  -2.20000000000@-01  -3.20000000000@-01
  -4.00000000000@-01  -5.00000000000@-01  -5.50000000000@-01  -6.00000000000@-01  -6.44000000000@-01  -6.60000000000@-01
  -6.55000000000@-01  -6.35000000000@-01  -5.95000000000@-01  -5.52000000000@-01  -5.00000000000@-01  -4.40000000001@-01
  -4.00000000000@-01  -3.50000000000@-01  -3.00000000000@-01  -2.03999999999@-01  -1.00000000000@-01   0.00000000000@+00
   1.00000000000@-01   2.30000000000@-01   3.00000000000@-01   3.53000000000@-01   4.30000000000@-01   4.77000000000@-01
   5.10000000001@-01   5.22000000002@-01   5.20000000001@-01   5.00000000000@-01   4.56000000000@-01   4.00000000000@-01
   3.60000000001@-01   3.00000000000@-01   2.50000000000@-01   3.00000000000@-01   1.50000000000@-01   1.00000000000@-01
   5.00000000000@-02


Y      =
   1.10000000001@-01   1.08000000000@-01   1.14999999999@-01   1.50000000000@-01   2.05000000000@-01   3.00000000000@-01
   3.58000000000@-01   4.20000000000@-01   4.36000000000@-01   4.30000000000@-01   4.00000000000@-01   3.50000000000@-01
   3.00000000000@-01   2.00000000001@-01   1.00000000000@-01   0.00000000000@+00  -1.05000000000@-01  -2.00000000001@-01
  -2.50000000000@-01  -3.00000000000@-01  -3.43999999999@-01  -4.00000000000@-01  -4.36000000000@-01  -4.48000000001@-01
  -4.42000000000@-01  -4.00000000000@-01  -3.50000000000@-01  -3.00000000000@-01  -2.00000000001@-01  -1.00000000000@-01
   0.00000000000@+00   1.00000000000@-01   1.60000000001@-01   2.39999999999@-01   3.00000000000@-01   3.30000000000@-01
   3.37000000000@-01   3.20000000000@-01   2.90000000001@-01   2.45000000001@-01   2.00000000001@-01   1.60000000001@-01
   1.28000000001@-01


W      =
   1.41400000000@-02   1.42700000000@-02   1.96300000000@-02   2.29999999999@-02   3.89700000001@-02   2.79200000000@-02
   3.32399999999@-02   1.48299999999@-02   1.42300000000@-02   1.50500000000@-02   1.48299999999@-02   1.42000000000@-02
   2.88100000001@-02   3.04300000001@-02   3.07600000002@-02   3.31100000000@-02   3.17500000002@-02   1.80900000001@-02
   1.99800000001@-02   1.88200000000@-02   3.14000000001@-02   3.45000000000@-02   2.84600000001@-02   2.83099999999@-02
   3.86000000002@-02   2.43100000000@-02   2.05900000001@-02   3.56600000001@-02   3.12200000000@-02   2.97499999999@-02
   2.84600000001@-02   1.69600000000@-02   2.33000000000@-02   2.10199999998@-02   1.79500000000@-02   1.14700000000@-02
   1.76200000000@-02   1.64800000000@-02   1.90100000000@-02   1.90100000000@-02   1.80900000001@-02   1.67700000000@-02
   1.50100000000@-02


CBV    =
   7.63990857000@-01   7.23476999550@-01   6.70486515620@-01   5.55760515690@-01   4.03864157242@-01   1.70153235251@-01
   6.50036131620@-02   1.35969111804@-02   4.34406209922@-02   1.24443888181@-01   2.35411546883@-01   3.35127952258@-01
   4.10409228179@-01   5.57922404120@-01   6.99692526170@-01   8.43691658110@-01   9.91455364510@-01   1.12185181366@+00
   1.19145281421@+00   1.26504184521@+00   1.33459251738@+00   1.44501061818@+00   1.55125970980@+00   1.64342354803@+00
   1.73434400866@+00   1.85512612469@+00   1.91501751200@+00   1.95689478869@+00   1.99507156912@+00   1.96578820441@+00
   1.89241116472@+00   1.75328349823@+00   1.63683157068@+00   1.41798014338@+00   1.15159624467@+00   9.12686299540@-01
   7.83542953740@-01   6.82743770100@-01   6.59913937640@-01   8.92513136020@-01   7.28852845610@-01   7.59094650350@-01
   7.74988822250@-01


BV     =
   7.60888465450@-01   7.20246055780@-01   6.67212406800@-01   5.52356512670@-01   4.00677168384@-01   1.70143475069@-01
   6.94918044650@-02   2.00633089262@-02   4.59001323489@-02   1.20368543445@-01   2.28496737625@-01   3.32481404050@-01
   4.11800002861@-01   5.61688937140@-01   7.00690877200@-01   8.41773259000@-01   9.89149666870@-01   1.12198473963@+00
   1.19325814303@+00   1.26792135330@+00   1.33733963929@+00   1.44504543647@+00   1.54874888482@+00   1.64168181988@+00
   1.73582146871@+00   1.85882384451@+00   1.91643181675@+00   1.95563019495@+00   1.99206099581@+00   1.96610965548@+00
   1.89648227785@+00   1.75623351628@+00   1.63625089460@+00   1.41224024707@+00   1.14765460414@+00   9.15228104730@-01
   7.89128023850@-01   6.87850932100@-01   6.62307799950@-01   8.94070846770@-01   7.26940189160@-01   7.56420955760@-01
   7.72021544670@-01   0.00000000000@+00   0.00000000000@+00   0.00000000000@+00   0.00000000000@+00   0.00000000000@+00
   0.00000000000@+00   0.00000000000@+00   0.00000000000@+00   0.00000000000@+00   0.00000000000@+00   0.00000000000@+00


Z   00 =
   1.00000000000@+00   1.00000000000@+00   1.00000000000@+00   1.00000000000@+00   1.00000000000@+00   1.00000000000@+00
   1.00000000000@+00   1.00000000000@+00   1.00000000000@+00   1.00000000000@+00   1.00000000000@+00   1.00000000000@+00
   1.00000000000@+00   1.00000000000@+00   1.00000000000@+00   1.00000000000@+00   1.00000000000@+00   1.00000000000@+00
   1.00000000000@+00   1.00000000000@+00   1.00000000000@+00   1.00000000000@+00   1.00000000000@+00   1.00000000000@+00
   1.00000000000@+00   1.00000000000@+00   1.00000000000@+00   1.00000000000@+00   1.00000000000@+00   1.00000000000@+00
   1.00000000000@+00   1.00000000000@+00   1.00000000000@+00   1.00000000000@+00   1.00000000000@+00   1.00000000000@+00
   1.00000000000@+00   1.00000000000@+00   1.00000000000@+00   1.00000000000@+00   1.00000000000@+00   1.00000000000@+00
   1.00000000000@+00   0.00000000000@+00   0.00000000000@+00   0.00000000000@+00   0.00000000000@+00   0.00000000000@+00
   0.00000000000@+00   0.00000000000@+00   0.00000000000@+00   0.00000000000@+00   0.00000000000@+00   0.00000000000@+00


Z   01 =
   0.00000000000@+00  -5.00000000000@-02  -1.00000000000@-01  -1.60000000001@-01  -2.20000000000@-01  -3.20000000000@-01
  -4.00000000000@-01  -5.00000000000@-01  -5.50000000000@-01  -6.00000000000@-01  -6.44000000000@-01  -6.60000000000@-01
  -6.55000000000@-01  -6.35000000000@-01  -5.95000000000@-01  -5.52000000000@-01  -5.00000000000@-01  -4.40000000001@-01
  -4.00000000000@-01  -3.50000000000@-01  -3.00000000000@-01  -2.03999999999@-01  -1.00000000000@-01   0.00000000000@+00
   1.00000000000@-01   2.30000000000@-01   3.00000000000@-01   3.53000000000@-01   4.30000000000@-01   4.77000000000@-01
   5.10000000001@-01   5.22000000002@-01   5.20000000001@-01   5.00000000000@-01   4.56000000000@-01   4.00000000000@-01
   3.60000000001@-01   3.00000000000@-01   2.50000000000@-01   3.00000000000@-01   1.50000000000@-01   1.00000000000@-01
   5.00000000000@-02   0.00000000000@+00   0.00000000000@+00   0.00000000000@+00   0.00000000000@+00   0.00000000000@+00
   0.00000000000@+00   0.00000000000@+00   0.00000000000@+00   0.00000000000@+00   0.00000000000@+00   0.00000000000@+00


Z   02 =
   1.10000000001@-01   1.08000000000@-01   1.14999999999@-01   1.50000000000@-01   2.05000000000@-01   3.00000000000@-01
   3.58000000000@-01   4.20000000000@-01   4.36000000000@-01   4.30000000000@-01   4.00000000000@-01   3.50000000000@-01
   3.00000000000@-01   2.00000000001@-01   1.00000000000@-01   0.00000000000@+00  -1.05000000000@-01  -2.00000000001@-01
  -2.50000000000@-01  -3.00000000000@-01  -3.43999999999@-01  -4.00000000000@-01  -4.36000000000@-01  -4.48000000001@-01
  -4.42000000000@-01  -4.00000000000@-01  -3.50000000000@-01  -3.00000000000@-01  -2.00000000001@-01  -1.00000000000@-01
   0.00000000000@+00   1.00000000000@-01   1.60000000001@-01   2.39999999999@-01   3.00000000000@-01   3.30000000000@-01
   3.37000000000@-01   3.20000000000@-01   2.90000000001@-01   2.45000000001@-01   2.00000000001@-01   1.60000000001@-01
   1.28000000001@-01   0.00000000000@+00   0.00000000000@+00   0.00000000000@+00   0.00000000000@+00   0.00000000000@+00
   0.00000000000@+00   0.00000000000@+00   0.00000000000@+00   0.00000000000@+00   0.00000000000@+00   0.00000000000@+00


Z   03 =
  -1.20999999999@-02  -9.16400000000@-03  -3.22500000002@-03   3.10000000014@-03   6.37499999970@-03   1.24000000003@-02
   3.18360000002@-02   7.36000000000@-02   1.12404000000@-01   1.75100000000@-01   2.54736000001@-01   3.13100000001@-01
   3.39025000001@-01   3.63225000000@-01   3.44024999999@-01   3.04704000000@-01   2.38975000000@-01   1.53599999999@-01
   9.75000000000@-02   3.25000000007@-02  -2.83359999998@-02  -1.18384000000@-01  -1.80096000001@-01  -2.00704000001@-01
  -1.85363999999@-01  -1.07100000000@-01  -3.25000000007@-02   3.46090000001@-02   1.44899999999@-01   2.17529000001@-01
   2.60100000000@-01   2.62484000000@-01   2.44800000002@-01   1.92400000000@-01   1.17936000001@-01   5.10999999999@-02
   1.60310000005@-02  -1.24000000003@-02  -2.16000000005@-02   2.99749999990@-02  -1.75000000004@-02  -1.56000000000@-02
  -1.38840000003@-02   0.00000000000@+00   0.00000000000@+00   0.00000000000@+00   0.00000000000@+00   0.00000000000@+00
   0.00000000000@+00   0.00000000000@+00   0.00000000000@+00   0.00000000000@+00   0.00000000000@+00   0.00000000000@+00


Z   04 =
   0.00000000000@+00  -1.08000000000@-02  -2.30000000002@-02  -4.79999999997@-02  -9.02000000000@-02  -1.92000000000@-01
  -2.86399999999@-01  -4.20000000000@-01  -4.79600000003@-01  -5.16000000000@-01  -5.15200000000@-01  -4.62000000004@-01
  -3.92999999998@-01  -2.54000000002@-01  -1.19000000000@-01   0.00000000000@+00   1.05000000000@-01   1.76000000001@-01
   2.00000000001@-01   2.09999999999@-01   2.06400000000@-01   1.63200000000@-01   8.72000000000@-02   0.00000000000@+00
  -8.84000000000@-02  -1.84000000000@-01  -2.09999999999@-01  -2.11799999999@-01  -1.72000000000@-01  -9.54000000000@-02
   0.00000000000@+00   1.04400000001@-01   1.66400000002@-01   2.39999999999@-01   2.73599999999@-01   2.64000000000@-01
   2.42640000001@-01   1.92000000000@-01   1.45000000001@-01   1.47000000002@-01   6.00000000000@-02   3.20000000001@-02
   1.28000000000@-02   0.00000000000@+00   0.00000000000@+00   0.00000000000@+00   0.00000000000@+00   0.00000000000@+00
   0.00000000000@+00   0.00000000000@+00   0.00000000000@+00   0.00000000000@+00   0.00000000000@+00   0.00000000000@+00


Z   05 =
   0.00000000000@+00   1.62460000000@-03   2.96749999998@-03   6.70399999990@-03   1.70885000000@-02   5.36319999996@-02
   8.97968000000@-02   1.39600000001@-01   1.47283400000@-01   1.16820000001@-01   4.20300159986@-02  -4.49460000018@-02
  -1.04161375004@-01  -1.79847875000@-01  -1.92794874999@-01  -1.68196608000@-01  -1.08462500000@-01  -3.23839999996@-02
   1.09999999999@-02   5.16249999996@-02   7.95023999990@-02   8.94303360000@-02   5.60288000000@-02   0.00000000000@+00
  -5.76092000000@-02  -9.82330000000@-02  -8.32500000010@-02  -5.13230229990@-02   2.79069999997@-02   9.42213330010@-02
   1.32651000000@-01   1.26576648001@-01   1.00672000002@-01   3.86000000002@-02  -2.83011839993@-02  -6.66800000000@-02
  -7.59985200000@-02  -6.51600000000@-02  -4.74500000005@-02  -2.70225000005@-02  -1.46250000001@-02  -6.68000000000@-03
  -2.33260000005@-03   0.00000000000@+00   0.00000000000@+00   0.00000000000@+00   0.00000000000@+00   0.00000000000@+00
   0.00000000000@+00   0.00000000000@+00   0.00000000000@+00   0.00000000000@+00   0.00000000000@+00   0.00000000000@+00


Z   06 =
  -1.33099999999@-03  -4.49712000001@-04   1.92912499998@-03   8.14499999990@-03   2.11508749999@-02   6.51600000000@-02
   1.25957287999@-01   2.40912000001@-01   3.12788144000@-01   3.84893000001@-01   4.33683200002@-01   4.14505000002@-01
   3.59122499998@-01   2.33935000002@-01   1.05207500000@-01   0.00000000000@+00  -7.75923750000@-02  -1.08160000000@-01
  -1.04375000000@-01  -8.32500000000@-02  -5.21724159997@-02   1.40607999999@-02   6.98018560000@-02   8.99153920010@-02
   7.30908880000@-02   5.19999999824@-04  -5.16249999996@-02  -8.51481000000@-02  -1.02940000000@-01  -6.72587000000@-02
   0.00000000000@+00   8.07452000000@-02   1.25696000000@-01   1.66176000000@-01   1.60142400001@-01   1.22463000000@-01
   9.27528470000@-02   5.36319999996@-02   2.99860000001@-02   5.14438749997@-02   5.49999999990@-03   7.04000000010@-04
  -1.13715200002@-03   0.00000000000@+00   0.00000000000@+00   0.00000000000@+00   0.00000000000@+00   0.00000000000@+00
   0.00000000000@+00   0.00000000000@+00   0.00000000000@+00   0.00000000000@+00   0.00000000000@+00   0.00000000000@+00


Z   07 =
   1.46410000000@-04  -3.26611039996@-05  -5.18599374998@-04  -2.29438999998@-03  -8.09539937500@-03  -3.67102399997@-02
  -8.10114291040@-02  -1.70983040000@-01  -2.17381500785@-01  -2.35595990000@-01  -2.00540610304@-01  -1.15412390002@-01
  -3.95110493756@-02   6.74164006240@-02   1.04192200623@-01   9.28445276160@-02   4.60840506248@-02  -7.38304000010@-03
  -3.04937500000@-02  -4.30437499996@-02  -4.17980311035@-02  -1.26194685440@-02   2.48307292160@-02   4.02820956163@-02
   2.65452524959@-02  -2.23855900000@-02  -4.30437499996@-02  -4.36614571186@-02  -8.58799000030@-03   3.82177058415@-02
   6.76520100000@-02   5.79984902570@-02   3.22380800005@-02  -2.05822399998@-02  -6.09480599040@-02  -6.70847900000@-02
  -5.86171766390@-02  -3.67102399997@-02  -2.05584400000@-02  -2.07104993751@-02  -3.29374999995@-03  -7.80640000000@-04
   2.89254560038@-05   0.00000000000@+00   0.00000000000@+00   0.00000000000@+00   0.00000000000@+00   0.00000000000@+00
   0.00000000000@+00   0.00000000000@+00   0.00000000000@+00   0.00000000000@+00   0.00000000000@+00   0.00000000000@+00


Z   08 =
   0.00000000000@+00   1.97942400002@-04   1.48350000000@-04  -2.97600000010@-04  -1.15004999995@-03  -4.76160000017@-03
  -1.82356607997@-02  -6.18240000000@-02  -1.07817916798@-01  -1.80703200000@-01  -2.62479974401@-01  -2.89304400001@-01
  -2.66473650002@-01  -1.84518300003@-01  -8.18779499990@-02   0.00000000000@+00   5.01847500000@-02   5.40672000004@-02
   3.89999999998@-02   1.36499999999@-02  -1.16971007996@-02  -3.86405375999@-02  -3.14087424001@-02   0.00000000000@+00
   3.27723551997@-02   3.94127999998@-02   1.36500000001@-02  -1.46603724000@-02  -4.98456000006@-02  -4.15045332004@-02
   0.00000000000@+00   5.48066592001@-02   8.14694400020@-02   9.23520000000@-02   6.45345792000@-02   2.69807999999@-02
   7.77952368070@-03  -4.76159999994@-03  -6.26400000010@-03   8.81264999970@-03  -2.10000000001@-03  -9.98399999990@-04
  -3.55430400009@-04   0.00000000000@+00   0.00000000000@+00   0.00000000000@+00   0.00000000000@+00   0.00000000000@+00
   0.00000000000@+00   0.00000000000@+00   0.00000000000@+00   0.00000000000@+00   0.00000000000@+00   0.00000000000@+00


Z   09 =
   0.00000000000@+00  -1.97447239999@-05   3.47996874996@-05   4.11742399997@-04   2.01674811251@-03   1.31757567998@-02
   3.89329382080@-02   1.11457600001@-01   1.66568437156@-01   2.19059970001@-01   2.34140142797@-01   1.77428717403@-01
   1.05821832342@-01  -5.90575439620@-03  -5.38065643712@-02  -5.12501792441@-02  -1.77726265627@-02   1.40619776002@-02
   2.19475000001@-02   1.91603125002@-02   8.51560665600@-03  -1.28818434571@-02  -1.61772846080@-02   0.00000000000@+00
   1.71399062479@-02   1.06164342999@-02  -8.13562499980@-03  -1.98106060829@-02  -1.36619557001@-02   1.40793923664@-02
   3.45025251000@-02   2.47945459939@-02   3.72869119994@-03  -3.24555999998@-02  -4.71526890760@-02  -3.57375800000@-02
  -2.37238830705@-02  -9.48935999990@-03  -3.32304999998@-03  -8.37224906250@-03  -7.40624999940@-05   8.16799999970@-05
   4.69413640017@-05   0.00000000000@+00   0.00000000000@+00   0.00000000000@+00   0.00000000000@+00   0.00000000000@+00
   0.00000000000@+00   0.00000000000@+00   0.00000000000@+00   0.00000000000@+00   0.00000000000@+00   0.00000000000@+00


Z   10 =
   1.61050999998@-05  -1.34245192319@-05  -7.44739281250@-05  -2.96542499999@-04  -1.40654587190@-03  -9.48935999990@-03
  -2.17078272993@-02  -4.09008768002@-02  -3.54784801039@-02   7.11564430090@-03   8.88208593930@-02   1.50546567501@-01
   1.62686925940@-01   1.30652400626@-01   5.91366003120@-02   0.00000000000@+00  -2.99312003158@-02  -2.23129600001@-02
  -7.97656249980@-03   8.13562499980@-03   1.78876529394@-02   1.29304570882@-02  -7.68532369800@-03  -1.80463788360@-02
  -8.45576608310@-03   1.80191800003@-02   1.91603125002@-02   7.92332567830@-03  -1.97160100000@-02  -2.36194329210@-02
   0.00000000000@+00   3.44089251285@-02   4.75222016005@-02   4.12362623998@-02   1.11433501447@-02  -1.13456607000@-02
  -1.69533600024@-02  -1.31757567998@-02  -7.52794760000@-03  -2.43027734700@-03  -9.73750000000@-04  -2.24742399997@-04
  -1.40690616313@-05   0.00000000000@+00   0.00000000000@+00   0.00000000000@+00   0.00000000000@+00   0.00000000000@+00
   0.00000000000@+00   0.00000000000@+00   0.00000000000@+00   0.00000000000@+00   0.00000000000@+00   0.00000000000@+00


ORTH00 =
   9.99995000030@-01   9.99995000030@-01   9.99995000030@-01   9.99995000030@-01   9.99995000030@-01   9.99995000030@-01
   9.99995000030@-01   9.99995000030@-01   9.99995000030@-01   9.99995000030@-01   9.99995000030@-01   9.99995000030@-01
   9.99995000030@-01   9.99995000030@-01   9.99995000030@-01   9.99995000030@-01   9.99995000030@-01   9.99995000030@-01
   9.99995000030@-01   9.99995000030@-01   9.99995000030@-01   9.99995000030@-01   9.99995000030@-01   9.99995000030@-01
   9.99995000030@-01   9.99995000030@-01   9.99995000030@-01   9.99995000030@-01   9.99995000030@-01   9.99995000030@-01
   9.99995000030@-01   9.99995000030@-01   9.99995000030@-01   9.99995000030@-01   9.99995000030@-01   9.99995000030@-01
   9.99995000030@-01   9.99995000030@-01   9.99995000030@-01   9.99995000030@-01   9.99995000030@-01   9.99995000030@-01
   9.99995000030@-01   9.99995000030@-01   0.00000000000@+00   0.00000000000@+00   0.00000000000@+00   0.00000000000@+00
   0.00000000000@+00   0.00000000000@+00   0.00000000000@+00   0.00000000000@+00   0.00000000000@+00   0.00000000000@+00


ORTH01 =
   1.80914235387@-01   5.41552019810@-02  -7.26038314250@-02  -2.24714671515@-01  -3.76825511601@-01  -6.30343578410@-01
  -8.33158031860@-01  -1.08667609867@+00  -1.21343513209@+00  -1.34019416549@+00  -1.45174211489@+00  -1.49230500558@+00
  -1.47962910224@+00  -1.42892548887@+00  -1.32751826214@+00  -1.21850549342@+00  -1.08667609867@+00  -9.34565258600@-01
  -8.33158031860@-01  -7.06398998460@-01  -5.79639965050@-01  -3.36262620913@-01  -7.26038314250@-02   1.80914235387@-01
   4.34432302200@-01   7.64005789050@-01   9.41468435820@-01   1.07583301123@+00   1.27104192268@+00   1.39019541409@+00
   1.47385637613@+00   1.50427854415@+00   1.49920818281@+00   1.44850456945@+00   1.33695662006@+00   1.19498650264@+00
   1.09357927591@+00   9.41468435820@-01   8.14709402420@-01   9.41468435820@-01   5.61191335600@-01   4.34432302200@-01
   3.07673268793@-01   1.80914235387@-01   2.53518066813@+00   0.00000000000@+00   0.00000000000@+00   0.00000000000@+00
   0.00000000000@+00   0.00000000000@+00   0.00000000000@+00   0.00000000000@+00   0.00000000000@+00   0.00000000000@+00


ORTH02 =
   3.80771471710@-01   3.49866071394@-01   3.51052032461@-01   4.47322987158@-01   6.14908078260@-01   9.06102252830@-01
   1.07487486972@+00   1.24840071924@+00   1.28167804168@+00   1.23650981409@+00   1.10861750119@+00   9.22724484440@-01
   7.46816542100@-01   3.99755454744@-01   6.22039620550@-02  -2.73921091434@-01  -6.23595361420@-01  -9.33808725340@-01
  -1.09307487700@+00  -1.24758623134@+00  -1.38070334475@+00  -1.53473687227@+00  -1.61365242553@+00  -1.60889293400@+00
  -1.53995071973@+00  -1.32837866792@+00  -1.11680974557@+00  -9.13323978670@-01  -5.20141357157@-01  -1.41223127650@-01
   2.31038385585@-01   5.93314824410@-01   8.06306274170@-01   1.08205322511@+00   1.27507452606@+00   1.35541886558@+00
   1.36135962399@+00   1.27221382404@+00   1.14146863275@+00   1.00478581250@+00   7.73007045570@-01   6.06604786080@-01
   4.68728181151@-01  -1.14562785201@-02   4.75479733539@-01   3.56570682029@+00   0.00000000000@+00   0.00000000000@+00
   0.00000000000@+00   0.00000000000@+00   0.00000000000@+00   0.00000000000@+00   0.00000000000@+00   0.00000000000@+00


ORTH03 =
  -7.98230679010@-01  -8.00670335140@-01  -7.97158058240@-01  -8.45914528020@-01  -9.52342360660@-01  -1.13149559140@+00
  -1.13635631400@+00  -9.96454733350@-01  -7.69251149490@-01  -3.28863117695@-01   2.80848830605@-01   7.86226627130@-01
   1.06657893074@+00   1.43115116286@+00   1.49022773434@+00   1.40423507632@+00   1.13947635221@+00   7.18134835610@-01
   4.19573748318@-01   6.15962883030@-02  -2.76648949872@-01  -7.81435218710@-01  -1.11065867469@+00  -1.18488142181@+00
  -1.02887760731@+00  -4.61405719093@-01   3.23082105783@-02   4.62088497172@-01   1.13129821487@+00   1.50946023254@+00
   1.66078431938@+00   1.50757995862@+00   1.27124440605@+00   7.36483532880@-01   6.31272108930@-02  -5.08034843534@-01
  -7.98055067530@-01  -1.00811182191@+00  -1.04943624920@+00  -5.66262807350@-01  -9.14877561260@-01  -8.57550001910@-01
  -8.15736972880@-01  -5.15126039884@-01   5.47815637176@-01  -1.77161132384@+00   7.29152012420@+00   0.00000000000@+00
   0.00000000000@+00   0.00000000000@+00   0.00000000000@+00   0.00000000000@+00   0.00000000000@+00   0.00000000000@+00


ORTH04 =
   1.89813751040@-01   1.82127389697@-01   1.74755299152@-01   1.28035535669@-01   9.38427469670@-05  -3.82834322212@-01
  -7.66095545140@-01  -1.32972943195@+00  -1.57423861745@+00  -1.69595052706@+00  -1.62918519635@+00  -1.32905143118@+00
  -9.79794909550@-01  -2.99574852387@-01   3.16987522010@-01   8.33004137860@-01   1.24656603605@+00   1.46330007198@+00
   1.49002115033@+00   1.42541050234@+00   1.29267120875@+00   8.72687158290@-01   2.93072413659@-01  -3.06363787901@-01
  -8.81817741670@-01  -1.47087288338@+00  -1.61283163294@+00  -1.60835662884@+00  -1.34343848955@+00  -8.64370931000@-01
  -2.82537366655@-01   3.50649641428@-01   7.27218315560@-01   1.18345021208@+00   1.42002917650@+00   1.41428668692@+00
   1.32645395539@+00   1.08466183656@+00   8.52462105030@-01   8.04445980890@-01   4.26593933304@-01   2.96644440327@-01
   2.20610358790@-01   1.16011370516@-01  -1.02995232365@+00   7.24525365880@-01   4.87223944212@-01   5.47827928630@+00
   0.00000000000@+00   0.00000000000@+00   0.00000000000@+00   0.00000000000@+00   0.00000000000@+00   0.00000000000@+00


ORTH05 =
  -2.24390098965@-01  -1.66400183375@-01  -1.13110015845@-01  -4.95212136934@-02   6.62319784940@-02   4.78687150042@-01
   9.30687900040@-01   1.58807650617@+00   1.75676283607@+00   1.53378186611@+00   8.33053076810@-01  -4.05475762073@-02
  -6.47235174420@-01  -1.39934393538@+00  -1.48659811099@+00  -1.16416362645@+00  -4.74044768720@-01   3.46951720782@-01
   7.84809608860@-01   1.15675794336@+00   1.36980774369@+00   1.25997951292@+00   6.40039498240@-01  -1.93963909827@-01
  -9.87932827850@-01  -1.49676338502@+00  -1.26043239531@+00  -8.07722587580@-01   2.79097483486@-01   1.16971971419@+00
   1.67592346178@+00   1.57342778410@+00   1.20607924739@+00   3.27689972104@-01  -6.42175793890@-01  -1.23639609976@+00
  -1.40920120204@+00  -1.30306097311@+00  -1.06907127744@+00  -7.14438767770@-01  -5.60312915570@-01  -4.06871372426@-01
  -2.99667166072@-01  -1.17762788829@-01  -7.15374218030@-01  -7.44720174440@-01   2.04199098746@+00   4.80984991258@-01
   1.22683224850@+01   0.00000000000@+00   0.00000000000@+00   0.00000000000@+00   0.00000000000@+00   0.00000000000@+00


ORTH06 =
  -7.83031145230@-01  -8.26709438640@-01  -8.77828056950@-01  -9.92311996970@-01  -1.12511418184@+00  -1.19016660869@+00
  -9.42966227060@-01  -2.07261027826@-01   3.88532526414@-01   1.12034403956@+00   1.76793176187@+00   1.84772647024@+00
   1.55281022728@+00   7.83945834410@-01  -6.03865301880@-02  -6.99681424930@-01  -1.06754405847@+00  -1.02231553767@+00
  -8.07220914270@-01  -4.26665832660@-01   2.41154834160@-02   8.30166519350@-01   1.41930839993@+00   1.53948511036@+00
   1.20729587539@+00   1.70100992276@-01  -5.46115067537@-01  -1.01248061082@+00  -1.31372288401@+00  -9.43924261000@-01
  -1.75763375887@-01   7.63322709580@-01   1.28529437978@+00   1.73412582700@+00   1.58976436041@+00   1.03546895435@+00
   6.01652362520@-01   2.67400607363@-02  -3.25873691819@-01   6.35479255760@-02  -6.73398898580@-01  -7.35527877110@-01
  -7.60150931590@-01  -5.00629958679@-01   6.28807337500@-01  -2.40459949737@+00   2.41675999967@-01   2.49542628691@+00
  -4.42402144898@-01   1.12479055209@+01   0.00000000000@+00   0.00000000000@+00   0.00000000000@+00   0.00000000000@+00


ORTH07 =
   5.51019868750@-01   5.86449920050@-01   6.24283106120@-01   7.32035647020@-01   8.84088443090@-01   9.47495489520@-01
   5.66882664010@-01  -6.07064036380@-01  -1.39435947253@+00  -1.94429415709@+00  -1.80033041716@+00  -8.50067168850@-01
   4.52894976773@-02   1.14460785783@+00   1.19437281445@+00   5.50207769960@-01  -5.02554397187@-01  -1.34725485135@+00
  -1.55085379902@+00  -1.43918708571@+00  -1.04847533569@+00   8.71044431450@-02   1.12855577534@+00   1.38649471350@+00
   8.05734743630@-01  -7.49814519390@-01  -1.40087019585@+00  -1.48167167636@+00  -6.24788834450@-01   6.15015948700@-01
   1.45746131465@+00   1.34130790365@+00   7.65253146800@-01  -4.88870417081@-01  -1.46796803072@+00  -1.58296839228@+00
  -1.32242712592@+00  -6.66521622340@-01  -1.64267376660@-01  -2.83287896696@-01   3.96118099923@-01   4.88832744524@-01
   5.26276688301@-01   3.22346629783@-01  -3.98322961006@-01   1.68602489073@+00  -3.56061481009@+00  -2.02793324394@+00
   5.75218328540@+00   2.34567128998@+00   2.21921335688@+01   0.00000000000@+00   0.00000000000@+00   0.00000000000@+00


ORTH08 =
  -4.59552511470@-01  -3.57550489980@-01  -2.49956886808@-01  -1.10535202184@-01   8.77662307320@-02   6.32960321680@-01
   1.12882158719@+00   1.55029207033@+00   1.34881637966@+00   5.12435290270@-01  -8.01007729160@-01  -1.58243318800@+00
  -1.59762632252@+00  -9.04910929790@-01   2.09683139037@-01   1.04361495218@+00   1.31891473010@+00   8.43271563970@-01
   3.10697753780@-01  -3.57647682531@-01  -9.27659546960@-01  -1.31906637880@+00  -7.88340798290@-01   2.75512116509@-01
   1.27517603344@+00   1.47674674967@+00   7.22450718720@-01  -1.20510890598@-01  -1.26539228961@+00  -1.25287096374@+00
  -3.22375177981@-01   1.01872396069@+00   1.67978145208@+00   1.89345027274@+00   1.00216352320@+00  -2.05430790485@-01
  -8.50249452030@-01  -1.28070007350@+00  -1.29971844597@+00  -6.82412211010@-01  -9.18301665170@-01  -7.37394431680@-01
  -5.82032104440@-01  -2.71354763210@-01  -9.13273574380@-01  -1.33368544841@+00   2.69915052323@+00  -3.41088821356@+00
  -1.09262623727@+00   6.40460783320@+00  -2.10432742399@+00   2.35554663755@+01   0.00000000000@+00   0.00000000000@+00


ORTH09 =
   5.67693111240@-01   4.74598780666@-01   3.75296678294@-01   2.29025067559@-01  -2.92455539033@-02  -7.58149749410@-01
  -1.26933550453@+00  -1.10567014320@+00  -2.80419398300@-01   1.04616657300@+00   2.01236982015@+00   1.42377440620@+00
   3.37695080737@-01  -1.15952200739@+00  -1.18146695504@+00  -2.10132176020@-01   1.03460812513@+00   1.46705086911@+00
   1.15259282354@+00   3.92532611245@-01  -4.89935964155@-01  -1.48728506995@+00  -1.06514096104@+00   3.02677436445@-01
   1.41727581010@+00   8.46544045380@-01  -4.24653958010@-01  -1.25741740139@+00  -1.18141072491@+00   2.38769035009@-01
   1.39238833761@+00   1.06767127615@+00   1.05848814118@-01  -1.53933250972@+00  -1.96709221463@+00  -9.81147646440@-01
  -1.08714149501@-01   8.32118106250@-01   1.15807409945@+00   5.11250792872@-01   1.00135455033@+00   8.35754218380@-01
   6.84349746040@-01   3.49810067308@-01   6.23064584790@-01   1.58846218545@+00  -2.74717991462@+00   2.62591176035@+00
  -8.90654483320@+00  -5.73054769770@+00   1.55998059094@+01   4.39807205094@+00   4.53723510556@+01   0.00000000000@+00


ORTH10 =
   5.60986276260@-01   6.05255230050@-01   6.39970402400@-01   7.23809443920@-01   8.28450990180@-01   7.34941553640@-01
   1.24775818147@-01  -1.33191819911@+00  -1.96702460886@+00  -1.73161410799@+00  -2.91746247295@-01   1.12008519444@+00
   1.47716389687@+00   7.72840847580@-01  -6.14853992030@-01  -1.41746182699@+00  -1.16288063591@+00  -3.86166401497@-02
   6.47659473720@-01   1.11186667976@+00   1.12575048879@+00   1.30445705655@-01  -1.14269519123@+00  -1.37747173011@+00
  -4.13686115913@-01   1.33159783993@+00   1.34576239529@+00   6.33505518840@-01  -1.07525371169@+00  -1.49911126496@+00
  -4.87447528858@-01   1.07534378140@+00   1.61941090363@+00   1.14423418882@+00  -4.19941899291@-01  -1.41823956642@+00
  -1.52501726954@+00  -9.81163165710@-01  -4.02355070162@-01  -3.56591928373@-01   3.22621158234@-01   4.55724956910@-01
   5.19484361014@-01   3.25875290866@-01  -6.67870606450@-01   1.65787392310@+00  -3.44055713767@+00  -2.13559787397@+00
   3.96432506853@+00  -8.12323218960@+00  -2.84939504576@+00   1.41768956571@+01   2.58171592641@+00   4.46610303462@+01


ORTH11 =
  -1.03121629563@+00  -1.07394628094@+00  -1.08829407845@+00  -1.13147013269@+00  -1.05933592973@+00  -3.24422290538@-03
   1.49184780123@+00   2.14939172841@+00   8.17526785970@-01  -1.35462008341@+00  -2.29844101581@+00  -8.79696708890@-01
   4.62285141772@-01   1.25197292762@+00   3.31845879076@-01  -6.37664325400@-01  -7.66400026320@-01   4.41838022953@-02
   6.00080454410@-01   9.57131173120@-01   9.13126803040@-01   1.15733869882@-02  -8.34583126250@-01  -5.78939963320@-01
   4.91098853142@-01   1.22909982271@+00   4.70106407169@-01  -4.20343344800@-01  -1.00069646251@+00   1.06848410817@-01
   1.35321352392@+00   9.80568257150@-01  -1.93013220975@-01  -1.90790700899@+00  -1.31017761663@+00   8.44880761440@-01
   1.85644372235@+00   1.69758994576@+00   7.95705440390@-01   5.17773687001@-01  -6.35755502000@-01  -8.88720000420@-01
  -9.86305221160@-01  -3.32990033813@+02  -3.31558678024@+02   6.61777554410@+02  -4.92064262576@+02   3.02242196197@+00
  -6.25674489760@+01  -2.07193268945@+02   1.18044582297@+02  -7.88576947510@+00   3.93728856274@+01   9.32160345480@+01


DEV    =
  -3.10239154896@-03  -3.23094377018@-03  -3.27410880345@-03  -3.40400301320@-03  -3.18698884985@-03  -9.76017327050@-06
   4.48819130429@-03   6.46639774990@-03   2.45951135822@-03  -4.07534473289@-03  -6.91480925340@-03  -2.64654820421@-03
   1.39077468339@-03   3.76653302192@-03   9.98351029920@-04  -1.91839910076@-03  -2.30569762607@-03   1.32925997605@-04
   1.80532885133@-03   2.87950808706@-03   2.74712190730@-03   3.48182802554@-05  -2.51082498289@-03  -1.74172814877@-03
   1.47746010043@-03   3.69771978876@-03   1.41430478834@-03  -1.26459370949@-03  -3.01057330216@-03   3.21451094351@-04
   4.07111312961@-03   2.95001803897@-03  -5.80676030950@-04  -5.73989628170@-03  -3.94164054887@-03   2.54180519187@-03
   5.58507011560@-03   5.10716202189@-03   2.39386231988@-03   1.55771075151@-03  -1.91265644753@-03  -2.67369457833@-03
  -2.96727756904@-03


COF    =
   1.00179319429@+00   9.97486991870@-01  -1.99094321998@+00   1.48036451348@+00  -9.09289000960@-03   1.88232794389@-01
   6.23336393450@-01  -3.55134530048@-01   2.37241640579@-02  -1.18452460601@-01  -2.80438390118@-01


STD    =
   5.31828800487@-04


CV  00 =
   1.98226565763@+00  -5.92977582510@-02   4.24862799856@+00  -8.02335245200@+00  -1.75889496584@-01  -8.96309335540@-01
  -1.12646040117@+01   1.22530004493@+01  -2.33498124639@-01   1.67130226051@+01   1.45539262544@+01


CV  01 =
   0.00000000000@+00   1.07482751246@+01  -5.71691317460@-01   1.72315950283@+00   2.56795372980@+00  -1.85449961746@+01
   2.14403838782@+00   4.70490406305@+00  -2.82406339367@+01   2.65456528898@+01  -2.98277894221@+01


CV  02 =
   0.00000000000@+00   0.00000000000@+00   3.26076705648@+01  -3.43374837286@+01  -6.29032158830@-01  -4.49248189433@+00
  -5.42036331896@+01   6.02787644840@+01  -9.25905973300@-01   7.63524234290@+01   7.40423575900@+01


CV  03 =
   0.00000000000@+00   0.00000000000@+00   0.00000000000@+00   9.69796096490@+01   2.40238340074@+00   1.23428084525@+01
   5.53446074890@+01  -1.17749502923@+02   2.72103464813@+00  -1.33528552657@+02  -1.53658826734@+02


CV  04 =
   0.00000000000@+00   0.00000000000@+00   0.00000000000@+00   0.00000000000@+00   6.36729053540@+01  -3.49953257233@+01
   3.76609775156@+00   9.22233598870@+00  -9.90722617300@+01   1.13630283187@+02  -9.53780014570@+01


CV  05 =
   0.00000000000@+00   0.00000000000@+00   0.00000000000@+00   0.00000000000@+00   0.00000000000@+00   2.80031315013@+02
   2.03550380832@+01  -2.02838357957@+01  -8.70712364720@+00  -3.93876117699@+02   1.77050842188@+02


CV  06 =
   0.00000000000@+00   0.00000000000@+00   0.00000000000@+00   0.00000000000@+00   0.00000000000@+00   0.00000000000@+00
   2.71862632025@+02  -2.76710756103@+01   1.04979476481@+01  -2.80980299799@+02  -3.62791919327@+02


CV  07 =
   0.00000000000@+00   0.00000000000@+00   0.00000000000@+00   0.00000000000@+00   0.00000000000@+00   0.00000000000@+00
   0.00000000000@+00   7.48391982780@+02  -2.13549197577@+01   7.00443541560@+02  -1.27256918607@+02


CV  08 =
   0.00000000000@+00   0.00000000000@+00   0.00000000000@+00   0.00000000000@+00   0.00000000000@+00   0.00000000000@+00
   0.00000000000@+00   0.00000000000@+00   7.75187404400@+02   2.36151586368@+02   6.33154767160@+02


CV  09 =
   0.00000000000@+00   0.00000000000@+00   0.00000000000@+00   0.00000000000@+00   0.00000000000@+00   0.00000000000@+00
   0.00000000000@+00   0.00000000000@+00   0.00000000000@+00   2.06531549744@+03   1.15302093334@+02


CV  10 =
   0.00000000000@+00   0.00000000000@+00   0.00000000000@+00   0.00000000000@+00   0.00000000000@+00   0.00000000000@+00
   0.00000000000@+00   0.00000000000@+00   0.00000000000@+00   0.00000000000@+00   1.99460763158@+03


CV  11 =
   1.40792956416@+00   3.27845621057@+00   5.71031265040@+00   9.84782258420@+00   7.97953039680@+00   1.67341362195@+01
   1.64882573982@+01   2.73567538787@+01   2.78421874931@+01   4.54457423466@+01   4.46610303462@+01


VCV 00 =
   5.60667731440@-07  -1.67718890100@-08   1.20168990090@-06  -2.26934003548@-06  -4.97489146597@-08  -2.53513811275@-07
  -3.18610169757@-06   3.46566159728@-06  -6.60430469210@-08   4.72714261757@-06   4.11645976167@-06


VCV 01 =
   0.00000000000@+00   3.04006226805@-06  -1.61698243022@-07   4.87381661306@-07   7.26324842780@-07  -5.24530145329@-06
   6.06423833450@-07   1.33074387761@-06  -7.98763379810@-06   7.50822218400@-06  -8.43654782840@-06


VCV 02 =
   0.00000000000@+00   0.00000000000@+00   9.22281461760@-06  -9.71207821290@-06  -1.77916633998@-07  -1.27066199353@-06
  -1.53310571362@-05   1.70493586504@-05  -2.61884979735@-07   2.15956624527@-05   2.09422791041@-05


VCV 03 =
   0.00000000000@+00   0.00000000000@+00   0.00000000000@+00   2.74298944384@-05   6.79494620790@-07   3.49106306114@-06
   1.56537724442@-05  -3.33044899548@-05   7.69622536450@-07  -3.77674659360@-05  -4.34611503604@-05


VCV 04 =
   0.00000000000@+00   0.00000000000@+00   0.00000000000@+00   0.00000000000@+00   1.80093638113@-05  -9.89814347480@-06
   1.06521014206@-06   2.60846278472@-06  -2.80217840725@-05   3.21394021294@-05  -2.69768925777@-05


VCV 05 =
   0.00000000000@+00   0.00000000000@+00   0.00000000000@+00   0.00000000000@+00   0.00000000000@+00   7.92045816440@-05
   5.75725709700@-06  -5.73711810860@-06  -2.46273916106@-06  -1.11404658870@-04   5.00773918258@-05


VCV 06 =
   0.00000000000@+00   0.00000000000@+00   0.00000000000@+00   0.00000000000@+00   0.00000000000@+00   0.00000000000@+00
   7.68941360480@-05  -7.82653885430@-06   2.96925917575@-06  -7.94729942790@-05  -1.02612745982@-04


VCV 07 =
   0.00000000000@+00   0.00000000000@+00   0.00000000000@+00   0.00000000000@+00   0.00000000000@+00   0.00000000000@+00
   0.00000000000@+00   2.11676590168@-04  -6.04006550260@-06   1.98114763244@-04  -3.59935852146@-05


VCV 08 =
   0.00000000000@+00   0.00000000000@+00   0.00000000000@+00   0.00000000000@+00   0.00000000000@+00   0.00000000000@+00
   0.00000000000@+00   0.00000000000@+00   2.19255457408@-04   6.67935570070@-05   1.79082680258@-04


VCV 09 =
   0.00000000000@+00   0.00000000000@+00   0.00000000000@+00   0.00000000000@+00   0.00000000000@+00   0.00000000000@+00
   0.00000000000@+00   0.00000000000@+00   0.00000000000@+00   5.84157703690@-04   3.26122600427@-05


VCV 10 =
   0.00000000000@+00   0.00000000000@+00   0.00000000000@+00   0.00000000000@+00   0.00000000000@+00   0.00000000000@+00
   0.00000000000@+00   0.00000000000@+00   0.00000000000@+00   0.00000000000@+00   5.64158558470@-04


VCV 11 =
   7.48777491270@-04   1.74357743391@-03   3.03690872724@-03   5.23735567236@-03   4.24374407939@-03   8.89969559280@-03
   8.76893015420@-03   1.45491096005@-02   1.48072771773@-02   2.41693546396@-02   2.37520221974@-02


EP     =
   9.44815104250@-02   7.08147372820@-02   3.08117457038@-02   1.05123860881@-02   9.46203601620@-03   8.67105689850@-03
   2.87556742466@-03   1.51818956510@-03   1.25508164606@-03   1.21206176477@-03   5.31828779618@-04


A   00 =
   9.99995000030@-01   0.00000000000@+00   0.00000000000@+00   0.00000000000@+00   0.00000000000@+00   0.00000000000@+00
   0.00000000000@+00   0.00000000000@+00   0.00000000000@+00   0.00000000000@+00   0.00000000000@+00


A   01 =
   1.80914235387@-01   2.53518066813@+00   0.00000000000@+00   0.00000000000@+00   0.00000000000@+00   0.00000000000@+00
   0.00000000000@+00   0.00000000000@+00   0.00000000000@+00   0.00000000000@+00   0.00000000000@+00


A   02 =
  -1.14562785201@-02   4.75479733539@-01   3.56570682029@+00   0.00000000000@+00   0.00000000000@+00   0.00000000000@+00
   0.00000000000@+00   0.00000000000@+00   0.00000000000@+00   0.00000000000@+00   0.00000000000@+00


A   03 =
  -5.15126039884@-01   5.47815637176@-01  -1.77161132384@+00   7.29152012420@+00   0.00000000000@+00   0.00000000000@+00
   0.00000000000@+00   0.00000000000@+00   0.00000000000@+00   0.00000000000@+00   0.00000000000@+00


A   04 =
   1.16011370516@-01  -1.02995232365@+00   7.24525365880@-01   4.87223944212@-01   5.47827928630@+00   0.00000000000@+00
   0.00000000000@+00   0.00000000000@+00   0.00000000000@+00   0.00000000000@+00   0.00000000000@+00


A   05 =
  -1.17762788829@-01  -7.15374218030@-01  -7.44720174440@-01   2.04199098746@+00   4.80984991258@-01   1.22683224850@+01
   0.00000000000@+00   0.00000000000@+00   0.00000000000@+00   0.00000000000@+00   0.00000000000@+00


A   06 =
  -5.00629958679@-01   6.28807337500@-01  -2.40459949737@+00   2.41675999967@-01   2.49542628691@+00  -4.42402144898@-01
   1.12479055209@+01   0.00000000000@+00   0.00000000000@+00   0.00000000000@+00   0.00000000000@+00


A   07 =
   3.22346629783@-01  -3.98322961006@-01   1.68602489073@+00  -3.56061481009@+00  -2.02793324394@+00   5.75218328540@+00
   2.34567128998@+00   2.21921335688@+01   0.00000000000@+00   0.00000000000@+00   0.00000000000@+00


A   08 =
  -2.71354763210@-01  -9.13273574380@-01  -1.33368544841@+00   2.69915052323@+00  -3.41088821356@+00  -1.09262623727@+00
   6.40460783320@+00  -2.10432742399@+00   2.35554663755@+01   0.00000000000@+00   0.00000000000@+00


A   09 =
   3.49810067308@-01   6.23064584790@-01   1.58846218545@+00  -2.74717991462@+00   2.62591176035@+00  -8.90654483320@+00
  -5.73054769770@+00   1.55998059094@+01   4.39807205094@+00   4.53723510556@+01   0.00000000000@+00


A   10 =
   3.25875290866@-01  -6.67870606450@-01   1.65787392310@+00  -3.44055713767@+00  -2.13559787397@+00   3.96432506853@+00
  -8.12323218960@+00  -2.84939504576@+00   1.41768956571@+01   2.58171592641@+00   4.46610303462@+01


GF     =
   1.00000499999@+00   3.94449205365@-01   2.80449305117@-01   1.37145613393@-01   1.82539068883@-01   8.15107363880@-02
   8.89054409410@-02   4.50610121331@-02   4.24529909133@-02   2.20398541565@-02   2.23908851240@-02   3.00847801003@-03


Q      =
   1.05755607611@+00   4.11485037932@-01  -4.09425525258@-01   1.83479281511@-01  -3.01289796986@-02   2.49041632135@-02
   4.98422256508@-02  -1.47312078273@-02   5.20707850368@-03  -2.25338081282@-03  -6.27926377750@-03   1.49334859822@+00


Q2     =
   1.11842485411@+00   1.69319936442@-01   1.67629260734@-01   3.36646467433@-02   9.07755417690@-04   6.20217345360@-04
   2.48424745783@-03   2.17008484052@-04   2.71136665434@-05   5.07772508757@-06   3.94291535874@-05


E      =
   3.74923744108@-01   2.05603807667@-01   3.79745469327@-02   4.30990018936@-03   3.40214477168@-03   2.78192742633@-03
   2.97679968497@-04   8.06714844450@-05   5.35578179015@-05   4.84800928140@-05   9.05093922650@-06


ENF    =
   1.00000499999@+00   4.00852450222@-01   2.85622988465@-01   1.77505404205@-01   2.10744207133@-01   8.84918706130@-02
   1.42309699631@-01   6.82848260940@-02   8.46487648830@-02   5.77703003310@-02   4.61220683614@-02

ELAPSED=   21.90, PROCESSOR=   13.42, I/O=   12.45 SEC


________________________________________________________________________________________________________________________
 LABEL  000000000PR     00184320?COMPILE DIRCHLT/B5500 XALGOL GO                                         DIRCHLT/B5500
________________________________________________________________________________________________________________________