 LABEL  000000000LINE   00120001?COMPILE MRS081/NEW ALGOL GO                                             ALGOL  /MRS081


                      BURROUGHS B-5700 ALGOL COMPILER MARK XIII.0   THURSDAY, 01/01/20,  12:13 PM.


                  BEGIN                                                                         00009000    0000
                                                                                        START OF SEGMENT **********    2
                  COMMENT          CONGENITAL  HEART  DISEASE  DIAGNOSIS  PROGRAM.              00010000    0000
                                   FROM A SET OF CLINICAL SYMPTOMS, THE PROBABILITIES           00020000    0000
                                   FOR EACH OF THE 33 CONGENITAL HEART DISEASES BEING           00030000    0000
                                   PRESENT IN THE PATIENT UNDER CONSIDERATION IS                00040000    0000
                                   CALCULATED AND THOSE GREATER THAN ONE PERCENT                00050000    0000
                                   ARE PRINTED OUT TOGETHER WITH DISEASE IDENTIFICATION         00060000    0000
                                   AND CASE INFORMATION.                                        00070000    0000
                                                                                                00071000    0000
                                          FRED B FIELDING                                       00080000    0000
                                   SAN FRANCISCO DISTRICT OFFICE                                00090000    0000
                                                                                                00091000    0000
                                   CARD SEQUENCE CODE FOR THE PROGRAM STARTS WITH               00100000    0000
                                   CHDD0001 AND  ROW 01-1 FOR SYMPTOM-DISEASE MATRIX.           00110000    0000
                                   FIRST RELEASE   05 - 31 - 61;                                00120000    0000
                                                                                                00121000    0000
                                                                                                00129000    0000
                  INTEGER          CASENO, CASEIN, SHEET, XRAY, EQUATION,                       00130000    0000
                                   MO, DAY, YEAR, LAST,                                         00140000    0000
                                   E, J, K, P, X,                                               00150000    0000
                                   TOTE, TOTP, TOTX, OUTSHEET,                                  00160000    0000
                                   T22, T2021, T4243, T4445, T6789;                             00170000    0000
                                                                                                00179000    0000
                  REAL             SUM;                                                         00200000    0000
                                                                                                00209000    0000
                  INTEGER ARRAY    SYE[1:20], SYP[1:20], TE[1:50], TP[1:50],                    00210000    0000
                                   ROW[1:51], MX[1:10], M[1:33,1:18];                           00220000    0007
                                                                                                00229000    0012
                  REAL ARRAY       FTROW[1:50], FTMX[1:10], PYKX[1:33], PYX[1:33];              00230000    0012
                                                                                                00231000    0019
                  LABEL            NEWCASE, CARD1, CARD2, EQTEST, XP9, TAL9, EQ10,              00231100    0019
                                   CARD3, XP10, X1TO3, X4TO7, X26, LAB5, BNORWH, BROWN,         00231200    0019
                                   X17TO19, X20, WHITE, X40, X2369, FLTMX, TAL10,               00231300    0019
                                   NORM, PRINT, TALPT, EOF,                                     00231400    0019
                                   Y01, Y02, Y03, Y04, Y05, Y06, Y07, Y08, Y09, Y10,            00231500    0019
                                   Y11, Y12, Y13, Y14, Y15, Y16, Y17, Y18, Y19, Y20,            00231600    0019
                                   Y21, Y22, Y23, Y24, Y25, Y26, Y27, Y28, Y29, Y30,            00231700    0019
                                   Y31, Y32, Y33;                                               00231800    0019
                                                                                                00231900    0019
                  SWITCH           SWOUT:= Y01,Y02,Y03,Y04,Y05,Y06,Y07,Y08,Y09,                 00232000    0019
                                   Y10,Y11,Y12,Y13,Y14,Y15,Y16,Y17,Y18,Y19,Y20,Y21,             00232100    0022
                                   Y22,Y23,Y24,Y25,Y26,Y27,Y28,Y29,Y30,Y31,Y32,Y33;             00232200    0022
                                                                                                00233000    0039
                  FILE IN          CARD(1, 10);                                                 00233100    0039
                  FILE OUT         LINE 17(1,17);                                               00233200    0043
                                                                                                00233300    0047
                  LIST             MATRIX(FOR K:= 1 STEP 1 UNTIL 33 DO                          00233400    0047
                                            FOR J:= 1 STEP 1 UNTIL 18 DO M[K,J]),               00233500    0050
                                   KASE(CASENO, CASEIN, SHEET, XRAY, EQUATION,                  00233600    0061
                                            MO, DAY, YEAR, LAST),                               00233700    0068
                                   IDOUT(CASENO, CASEIN, MO, DAY, YEAR),                        00233800    0076
                                   PRESENT(FOR P:= 1 STEP 1 UNTIL 20 DO SYP[P]),                00233900    0086
                                   POUT(FOR P:= 1 STEP 1 UNTIL TOTP DO SYP[P]),                 00234000    0096
                                   EXCLUDE(FOR E:= 1 STEP 1 UNTIL 20 DO SYE[E]),                00234100    0106
                                   EOUT(FOR E:= 1 STEP 1 UNTIL TOTE+1 DO SYE[E]),               00234200    0116
                                   SHOUT(OUTSHEET),                                             00234300    0127
                                   EQOUT(EQUATION),                                             00234400    0132
                                   ANS(FOR X:= K DO PYX[X]);                                    00234500    0137
                                                                                                00235000    0146
                  FORMAT OUT       IDFORM(X5,"CASE NUMBER",I7,X5,"PATIENT",X2,A3,X5,            00235100    0146
                                                                                        START OF SEGMENT **********    3
                                       "DATE",X1,3(I3)),                                        00235200    0146
                                   PFORM(/,X5,"SYMPTOMS PRESENT",X4,20(I4)),                    00235300    0146
                                   EFORM(/,X5,"SYMPTOMS OMITTED",X4,20(I4)),                    00235400    0146
                                   SHFORM(/,X5,"SYMPTOMS USED",X3,A2),                          00235500    0146
                                   EQFORM(X5,"EQUATION USED",I5),                               00235600    0146
                                   HEAD(X15,"DISEASE",X5,"PROBABILITY"),                        00235700    0146
                                                                                                00235800    0146
                                   FORM1(X8,"Y01",X7,"N",F16.4),                                00235900    0146
                                   FORM2(X8,"Y02",X5,"A S D",F14.4),                            00236000    0146
                                   FORM3(X8,"Y03",X2,"A S D - P S",F11.4),                      00236100    0146
                                   FORM4(X8,"Y04",X2,"A S D - P H",F11.4),                      00236200    0146
                                   FORM5(X8,"Y05",X4,"C E C D",F13.4),                          00236300    0146
                                   FORM6(X8,"Y06",X3,"P A P V C",F12.4),                        00236400    0146
                                   FORM7(X8,"Y07",X3,"T A P V C",F12.4),                        00236500    0146
                                   FORM8(X8,"Y08",X6,"T A",F15.4),                              00236600    0146
                                   FORM9(X8,"Y09",X5,"EBST.",F14.4),                            00236700    0146
                                   FORM10(X8,"Y10",X1,"V S D - V P S",F10.4),                   00236800    0146
                                   FORM11(X8,"Y11",X1,"V S D - I P S",F10.4),                   00236900    0146
                                   FORM12(X8,"Y12",X5,"V P S",F14.4),                           00237000    0146
                                   FORM13(X8,"Y13",X5,"I P S",F14.4),                           00237100    0146
                                   FORM14(X8,"Y14",X3,"P. ATRES.",F12.4),                       00237200    0146
                                   FORM15(X8,"Y15",X2,"COARCT. P A",F11.4),                     00237300    0146
                                   FORM16(X8,"Y16",X6,"P H",F15.4),                             00237400    0146
                                   FORM17(X8,"Y17",X5,"A P W",F14.4),                           00237500    0146
                                   FORM18(X8,"Y18",X5,"P D A",F14.4),                           00237600    0146
                                   FORM19(X8,"Y19",X2,"P A-V FIST.",F11.4),                     00237700    0146
                                   FORM20(X8,"Y20",X6,"M S",F15.4),                             00237800    0146
                                   FORM21(X8,"Y21",X4,"MYOC. D",F13.4),                         00237900    0146
                                   FORM22(X8,"Y22",X2,"A O COR. A",F12.4),                      00238000    0146
                                                                                           3 IS  259 LONG, NEXT SEG    2
                                                                                        START OF SEGMENT **********    4
                                   FORM23(X8,"Y23",X2,"A S - VALV.",F11.4),                     00238100    0146
                                   FORM24(X8,"Y24",X2,"A S - SUB.",F12.4),                      00238200    0146
                                   FORM25(X8,"Y25",X3,"COARCT. A",F12.4),                       00238300    0146
                                   FORM26(X8,"Y26",X4,"TRUNC.",F14.4),                          00238400    0146
                                   FORM27(X8,"Y27",X3,"TRANSP.",F14.4),                         00238500    0146
                                   FORM28(X8,"Y28",X3,"C TRANSP.",F12.4),                       00238600    0146
                                   FORM29(X8,"Y29",X4,"AB. A O",F13.4),                         00238700    0146
                                   FORM30(X8,"Y30",X5,"V S D",F14.4),                           00238800    0146
                                   FORM31(X8,"Y31",X2,"V S D - P H",F11.4),                     00238900    0146
                                   FORM32(X8,"Y32",X2,"P D A - P H",F11.4),                     00239000    0146
                                   FORM33(X8,"Y33",X1,"T A - TRANSP.",F10.4);                   00239100    0146
                                                                                           4 IS   98 LONG, NEXT SEG    2
                                                                                                00240000    0146
                  %%%%%%%%%%%%%%%%%%%%%%%%%%%%%%%%%%%%%%%%%%%%%%%%%%%%%%%%%%%%%%%%%%%%%%        00240100    0146
                  PROCEDURE UNPACK(M, SHEET, XRAY, EQUATION, ROW);                              00240200    0146
                    VALUE SHEET, XRAY, EQUATION;                                                00240300    0146
                    INTEGER SHEET, XRAY, EQUATION;                                              00240400    0146
                    INTEGER ARRAY M[1], ROW[1];                                                 00240500    0146
                    BEGIN                                                                       00240600    0146
                    INTEGER                                                                     00240700    0146
                                                                                        START OF SEGMENT **********    5
                      ROWX;                                                                     00240800    0000
                                                                                                00240900    0000
                    PROCEDURE UPACK(M, MX, ROW, ROWX, COUNT);                                   00241000    0000
                      VALUE MX, ROWX, COUNT;                                                    00241100    0000
                      INTEGER MX, ROWX, COUNT;                                                  00241200    0000
                      INTEGER ARRAY M[1], ROW[1];                                               00241300    0000
                      BEGIN                                                                     00241400    0000
                      DO BEGIN                                                                  00241500    0000
                        ROW[ROWX]:= (M[MX] DIV 1000000) MOD 1000;                               00241600    0000
                        ROW[ROWX+1]:= (M[MX] DIV 1000) MOD 1000;                                00241700    0003
                        ROW[ROWX+2]:= M[MX] MOD 1000;                                           00241800    0007
                        ROWX:= ROWX+3;                                                          00241900    0011
                        MX:= MX+1;                                                              00242000    0012
                        COUNT:= COUNT-1;                                                        00242100    0013
                        END                                                                     00242200    0014
                      UNTIL COUNT < 0;                  % MODELS 220 DFL/BRP INSTRUCTION        00242300    0014
                      END UPACK;                                                                00242400    0016
                                                                                                00242500    0018
                    ROWX:= 1;                                                                   00242600    0018
                    IF EQUATION ≠ 10 THEN                                                       00242700    0018
                      UPACK(M, 2, ROW, ROWX, 16)                                                00242800    0019
                    ELSE                                                                        00242900    0022
                      BEGIN                                                                     00243000    0022
                      UPACK(M, 2, ROW, ROWX, 4);                                                00243100    0023
                      ROWX:= ROWX+21;                   % ROWX=22                               00243200    0026
                      UPACK(M, 9, ROW, ROWX, 5);                                                00243300    0027
                      ROWX:= ROWX+27;                   % ROWX=49                               00243400    0030
                      UPACK(M, 18, ROW, ROWX, 0);                                               00243500    0031
                      IF SHEET ≠ 1 THEN                                                         00243600    0034
                        BEGIN                                                                   00243700    0034
                        UPACK(M, 7, ROW, ROWX-33, 1);   % ROWX=16                               00243800    0035
                        ROW[ROWX]:= 0;                                                          00243900    0038
                        END                                                                     00244000    0040
                      ELSE                                                                      00244100    0040
                        BEGIN                                                                   00244200    0040
                        ROW[19]:= (M[8] DIV 1000000) MOD 1000;                                  00244300    0040
                        ROWX:= ROWX-9;                  % ROWX=40                               00244400    0044
                        UPACK(M, 15, ROW, ROWX, 2);                                             00244500    0045
                        END;                                                                    00244600    0048
                      END;                                                                      00244700    0048
                    END UNPACK;                                                                 00244800    0048
                                                                                           5 IS   52 LONG, NEXT SEG    2
                                                                                                00247000    0146
                  %%%%%%%%%%%%%%%%%%%%%%%%%%%%%%%%%%%%%%%%%%%%%%%%%%%%%%%%%%%%%%%%%%%%%%        00248000    0146
                                                                                                00249000    0146
                  COMMENT          READ DATA FOR SYMPTOM-DISEASE MATRIX.;                       00250000    0146
                                   READ(CARD, /, MATRIX);                                       00270000    0146
                                                                                                00279000    0150
                  COMMENT          THE PROGRAM BEGINS HERE.  THE FIRST TWO INPUT CARDS          00280000    0150
                                   ARE READ, THE FIRST TWO LINES OF OUTPUT ARE PRINTED,         00290000    0150
                                   THE NUMBER OF SYMPTOMS ARE CALCULATED,                       00300000    0150
                                   AND THE EQUATION TYPE DETERMINED.;                           00310000    0150
                                                                                                00319000    0150
                  NEWCASE:         FOR P:= 1 STEP 1 UNTIL 20 DO                                 00320000    0150
                                     SYP[P]:= 0;                                                00321000    0151
                                   FOR J:= 1 STEP 1 UNTIL 50 DO                                 00330000    0155
                                     TP[J]:= ROW[J]:= 0;                                        00331000    0156
                                   FOR J:= 1 STEP 1 UNTIL 50 DO                                 00340000    0161
                                     FTROW[J]:= 0.0;                                            00341000    0163
                                                                                                00349000    0167
                  CARD1:           READ(CARD, /, KASE) [EOF];                                   00370000    0167
                                   WRITE(LINE[PAGE]);                                           00400000    0171
                                   WRITE(LINE, IDFORM, IDOUT);                                  00410000    0175
                  CARD2:           READ(CARD, /, PRESENT);                                      00430000    0178
                                   P:= 1;                                                       00440000    0182
                                   FOR J:= 1 STEP 1 UNTIL 50 DO                                 00450000    0183
                                     BEGIN                                                      00460000    0184
                                     IF SYP[P] = J THEN                                         00470000    0184
                                       BEGIN                                                    00471000    0185
                                       TP[J]:= 1;                                               00480000    0186
                                       P:= P+1                                                  00481000    0187
                                       END;                                                     00482000    0188
                                     END;                                                       00490000    0189
                                                                                                00499000    0191
                                   TOTP:= P - 1;                                                00500000    0191
                                   WRITE(LINE, PFORM, POUT);                                    00530000    0192
                                   K:= 1;                                                       00540000    0195
                                   IF SHEET = 1 THEN                                            00550000    0196
                                     BEGIN                                                      00551000    0197
                                     OUTSHEET:= "W ";                                           00560000    0197
                                     GO TO EQTEST                                               00561000    0198
                                     END;                                                       00562000    0199
                                   OUTSHEET:= "B ";                                             00570000    0200
                                                                                                00579000    0200
                  EQTEST:          IF EQUATION = 10 THEN                                        00580000    0200
                                     GO TO EQ10;                                                00581000    0201
                                                                                                00589000    0202
                  COMMENT          CALCULATE PROBABILITIES USING EQUATION 9.;                   00590000    0202
                                                                                                00599000    0202
                  COMMENT          ONE ROW OF THE MATRIX IS UNPACKED AND THE                    00600000    0202
                                   INDEPENDENT SYMPTOMS PRESENT RECOMPLEMENTED.;                00610000    0202
                                                                                                00619000    0202
                  XP9:             UNPACK(M[K,*], SHEET, XRAY, EQUATION, ROW[*]);               00620000    0202
                                   FOR J:= 8 STEP 1 UNTIL 16, 24, 25,                           00630000    0206
                                       30 STEP 1 UNTIL 33, 38, 39, 50 DO                        00631000    0215
                                     BEGIN                                                      00632000    0226
                                     IF TP[J] = 1 THEN                                          00640000    0226
                                       ROW[J]:= 1000 - ROW[J]                                   00641000    0227
                                     END;                                                       00642000    0230
                                                                                                00649000    0233
                  COMMENT          THE ROW-PRODUCT IS CALCULATED AND ZEROES TESTED FOR.;        00650000    0233
                                   PYKX[K]:= M[K,1];                                            00660000    0233
                                   FOR  P:= 1 STEP 1 UNTIL TOTP DO                              00670000    0236
                                     BEGIN                                                      00680000    0238
                                     IF ROW[SYP[P]] = 0 THEN                                    00690000    0238
                                       BEGIN                                                    00691000    0240
                                       PYKX[K]:= 0.0;                                           00700000    0240
                                       GO TO TAL9                                               00701000    0242
                                       END;                                                     00702000    0243
                                     FTROW[P]:= ROW[SYP[P]]                                     00710000    0243
                                     END;                                                       00720000    0245
                                                                                                00729000    0248
                                   FOR P:= 1 STEP 1 UNTIL TOTP DO                               00730000    0248
                                     PYKX[K]:= PYKX[K]×FTROW[P];                                00740000    0250
                                                                                                00749000    0256
                  TAL9:            K:= K+1;                                                     00750000    0256
                                   IF K ≤ 33 THEN                                               00760000    0257
                                     GO TO XP9;                                                 00761000    0258
                                   GO TO NORM;                                                  00770000    0258
                                                                                                00771000    0259
                                                                                                00779000    0259
                  COMMENT          CALCULATE PROBABILITIES USING EQUATION 10.;                  00780000    0259
                                                                                                00789000    0259
                  EQ10:            FOR  J:= 1 STEP 1 UNTIL 50 DO                                00790000    0259
                                     TE[J]:= 0;                                                 00791000    0260
                                   FOR E:= 1 STEP 1 UNTIL 20 DO                                 00800000    0264
                                     SYE[E]:= 0;                                                00801000    0265
                                   FOR X:= 1 STEP 1 UNTIL 10 DO                                 00810000    0269
                                     MX[X]:= 0;                                                 00811000    0270
                                   FOR X:= 1 STEP 1 UNTIL 10 DO                                 00820000    0274
                                     FTMX[X]:= 0.0;                                             00821000    0275
                                                                                                00829000    0279
                  COMMENT          THE THIRD INPUT CARD IS READ, THE THIRD LINE OF              00830000    0279
                                   OUTPUT IS PRINTED, AND THE NUMBER OF SYMPTOMS                00840000    0279
                                   TO BE OMITTED FOR THIS CASE IS CALCULATED.;                  00850000    0279
                                                                                                00859000    0279
                  CARD3:           READ(CARD, /, EXCLUDE);                                      00870000    0279
                                   E:= 1;                                                       00880000    0282
                                   FOR J:= 1 STEP 1 UNTIL 50 DO                                 00890000    0283
                                     BEGIN                                                      00900000    0284
                                     IF SYE[E] = J THEN                                         00910000    0284
                                       BEGIN                                                    00911000    0285
                                       TE[J]:= 1;                                               00920000    0286
                                       E:= E+1                                                  00921000    0287
                                       END;                                                     00922000    0288
                                     END;                                                       00930000    0289
                                                                                                00939000    0291
                                   TOTE:= E-1;                                                  00940000    0291
                                   WRITE(LINE, EFORM, EOUT);                                    00970000    0292
                                   TOTX:= SHEET+8;                                              00980000    0295
                                                                                                00989000    0297
                  COMMENT          ONE ROW OF THE MATRIX IS UNPACKED, THE                       00990000    0297
                                   INDEPENDENT SYMPTOMS PRESENT RECOMPLEMENTED,                 01000000    0297
                                   AND THE SYMPTOMS OMITTED FOR THIS CASE DELETED.;             01010000    0297
                                                                                                01019000    0297
                  XP10:            UNPACK(M[K,*], SHEET, XRAY, EQUATION, ROW[*]);               01020000    0297
                                   FOR  J:= 8 STEP 1 UNTIL 15, 24, 25,                          01030000    0300
                                       30 STEP 1 UNTIL 33, 38, 39, 50 DO                        01031000    0309
                                     BEGIN                                                      01040000    0320
                                     IF TP[J] = 1 THEN                                          01050000    0320
                                       ROW[J]:= 1000 - ROW[J];                                  01051000    0321
                                     IF ROW[J] = 0 THEN                                         01060000    0325
                                       BEGIN                                                    01061000    0326
                                       PYKX[K]:= 0.0;                                           01070000    0327
                                       GO TO TAL10                                              01071000    0329
                                       END;                                                     01072000    0329
                                     IF TE[J] = 1 THEN                                          01080000    0329
                                       ROW[J]:= 0                                               01081000    0331
                                     END;                                                       01090000    0332
                                                                                                01099000    0333
                  COMMENT          THE ROW-PRODUCT IS CALCULATED FOR THOSE INDEPENDENT          01100000    0333
                                   SYMPTOMS COMMON TO BOTH SHEETS, ZERO VALUES TESTED           01110000    0333
                                   FOR, AND EACH ELEMENT SCALED.;                               01120000    0333
                                                                                                01129000    0333
                                   PYKX[K]:= M[K,1];                                            01130000    0333
                                   FOR  J:= 8 STEP 1 UNTIL 15, 24, 25,                          01140000    0337
                                       30 STEP 1 UNTIL 33, 38, 39, 50 DO                        01141000    0346
                                     BEGIN                                                      01150000    0357
                                     FTROW[J]:= ROW[J];                                         01160000    0357
                                     FTROW[J]:= FTROW[J]/100.0;                                 01161000    0359
                                     IF FTROW[J] ≠ 0.0 THEN                                     01170000    0362
                                       PYKX[K]:= PYKX[K]×FTROW[J]                               01180000    0364
                                     END;                                                       01190000    0367
                                                                                                01191000    0370
                                                                                                01199000    0370
                  COMMENT          THE APPROPRIATE VALUE IS OBTAINED FOR THOSE MUTUALLY         01200000    0370
                                   EXCLUSIVE SYMPTOM-SETS COMMON TO BOTH BROWN AND              01210000    0370
                                   WHITE SYMPTOM CHECK SHEETS PER TABLE V.;                     01220000    0370
                                                                                                01229000    0370
                  X1TO3:           MX[1]:= ROW[SYP[1]];                                         01230000    0370
                  X4TO7:           IF TE[4] = 1 THEN                                            01240000    0373
                                     BEGIN                                                      01241000    0375
                                     MX[2]:= 100;                                               01250000    0376
                                     GO TO X26                                                  01251000    0377
                                     END;                                                       01252000    0378
                                   IF SYP[2] ≤ 7 THEN                                           01260000    0378
                                     BEGIN                                                      01261000    0379
                                     MX[2]:= ROW[SYP[2]];                                       01270000    0380
                                     GO TO X26                                                  01271000    0383
                                     END;                                                       01272000    0384
                                   MX[2]:= 1000 - ROW[4] - ROW[5] - ROW[6] - ROW[7];            01280000    0384
                                                                                                01289000    0390
                  X26:             X:= 3;                                                       01290000    0390
                                   FOR  J:= 26, 28, 34, 36 DO                                   01300000    0391
                                     BEGIN                                                      01310000    0401
                                     IF TE[J] = 1 THEN                                          01320000    0401
                                       BEGIN                                                    01321000    0402
                                       MX[X]:= 100;                                             01330000    0403
                                       GO TO LAB5                                               01331000    0405
                                       END;                                                     01332000    0405
                                     IF TP[J] = TP[J+1] THEN                                    01340000    0405
                                       BEGIN                                                    01341000    0408
                                       MX[X]:= 1000 - ROW[J] - ROW[J+1];                        01350000    0408
                                       GO TO LAB5                                               01351000    0413
                                       END;                                                     01352000    0414
                                     IF TP[J] = 1 THEN                                          01360000    0414
                                       BEGIN                                                    01361000    0415
                                       MX[X]:= ROW[J];                                          01370000    0416
                                       GO TO LAB5                                               01371000    0418
                                       END;                                                     01372000    0419
                                     MX[X]:= ROW[J+1];                                          01380000    0419
                    LAB5:            X:= X+1                                                    01390000    0422
                                     END;                                                       01400000    0422
                                                                                                01409000    0423
                  BNORWH:          IF SHEET = 1 THEN                                            01410000    0423
                                     GO TO WHITE;                                               01411000    0424
                                                                                                01419000    0425
                  COMMENT          THE APPROPRIATE VALUE IS OBTAINED FOR THOSE MUTUALLY         01420000    0425
                                   EXCLUSIVE SYMPTOM-SETS FOR THE BROWN SHEET OPTION.;          01430000    0425
                                                                                                01439000    0425
                  BROWN:           IF TP[16] = 1 THEN                                           01440000    0425
                                     ROW[16]:= 1000 - ROW[16];                                  01441000    0427
                                   IF ROW[16] = 0 THEN                                          01450000    0431
                                     BEGIN                                                      01451000    0432
                                     PYKX[K]:= 0.0;                                             01460000    0433
                                     GO TO TAL10                                                01461000    0434
                                     END;                                                       01462000    0435
                                   IF TE[16] = 1 THEN                                           01470000    0435
                                     BEGIN                                                      01471000    0436
                                     ROW[16]:= 0;                                               01480000    0437
                                     GO TO X17TO19                                              01481000    0439
                                     END;                                                       01482000    0439
                                                                                                01489000    0439
                                   BEGIN                                                        01490000    0439
                                   FTROW[16]:= ROW[16];                                         01500000    0439
                                   PYKX[K]:= PYKX[K]×FTROW[16] / 100.0                          01510000    0442
                                   END;                                                         01520000    0445
                                                                                                01529000    0446
                  X17TO19:         IF TE[17] = 1 THEN                                           01530000    0446
                                     BEGIN                                                      01531000    0448
                                     MX[7]:= 100;                                               01540000    0449
                                     GO TO X20                                                  01541000    0450
                                     END;                                                       01542000    0451
                                   IF TP[17] = TP[18] AND TP[18] = TP[19] THEN                  01550000    0453
                                     BEGIN                                                      01560000    0457
                                     MX[7]:= (1000-ROW[17])×(1000-ROW[18])×                     01570000    0458
                                             (1000-ROW[19]);                                    01571000    0462
                                     GO TO X20                                                  01580000    0464
                                     END;                                                       01590000    0465
                                   IF TP[19] = 1 THEN                                           01600000    0465
                                     BEGIN                                                      01601000    0466
                                     MX[7]:= ROW[19];                                           01610000    0467
                                     GO TO X20                                                  01611000    0469
                                     END;                                                       01612000    0470
                                   IF TP[17] = 0 THEN                                           01620000    0470
                                     BEGIN                                                      01621000    0471
                                     MX[7]:= ROW[18]×(1000 - ROW[17]);                          01630000    0472
                                     GO TO X20                                                  01631000    0476
                                     END;                                                       01632000    0477
                                   IF TP[18] = 0 THEN                                           01640000    0477
                                     BEGIN                                                      01641000    0478
                                     MX[7]:= ROW[17]×(1000 - ROW[18]);                          01650000    0479
                                     GO TO X20                                                  01651000    0483
                                     END;                                                       01652000    0483
                                   MX[7]:= ROW[17]×ROW[18];                                     01660000    0483
                                                                                                01669000    0487
                  X20:             IF TE[20] = 1 THEN                                           01670000    0487
                                     BEGIN                                                      01671000    0489
                                     MX[8]:= 100;                                               01680000    0490
                                     GO TO FLTMX                                                01681000    0491
                                     END;                                                       01682000    0492
                                                                                                01689000    0492
                                   T2021:= (1000 - ROW[20] - ROW[21]);                          01690000    0492
                                   T22:= (1000 - ROW[22]);                                      01700000    0495
                                                                                                01709000    0497
                                   IF (TP[20] = TP[21]) AND (TP[21] = TP[22])                   01710000    0497
                                        AND (TP[22] = TP[23]) THEN                              01720000    0501
                                     BEGIN                                                      01721000    0504
                                     MX[8]:= T2021×T22×(1000 - ROW[23]);                        01730000    0505
                                     GO TO FLTMX                                                01731000    0509
                                     END;                                                       01732000    0509
                                   IF TP[20] = 1 THEN                                           01740000    0509
                                     BEGIN                                                      01750000    0511
                                     IF TP[22] = 1 THEN                                         01760000    0511
                                       BEGIN                                                    01761000    0513
                                       MX[8]:= ROW[20]×ROW[22];                                 01770000    0513
                                       GO TO FLTMX                                              01771000    0517
                                       END;                                                     01772000    0518
                                     MX[8]:= ROW[20]×T22;                                       01780000    0518
                                     GO TO FLTMX                                                01781000    0521
                                     END;                                                       01790000    0521
                                                                                                01800000    0521
                                   IF TP[21] = 1 THEN                                           01810000    0521
                                     BEGIN                                                      01820000    0523
                                     IF TP[22] = 1 THEN                                         01830000    0523
                                       BEGIN                                                    01831000    0525
                                       MX[8]:= ROW[21]×ROW[22];                                 01840000    0525
                                       GO TO FLTMX                                              01841000    0529
                                       END;                                                     01842000    0529
                                     MX[8]:= ROW[21]×T22;                                       01850000    0529
                                     GO TO FLTMX                                                01851000    0532
                                     END;                                                       01860000    0533
                                   IF TP[22] = 1 THEN                                           01870000    0533
                                     BEGIN                                                      01871000    0534
                                     MX[8]:= ROW[22]×T2021;                                     01880000    0535
                                     GO TO FLTMX                                                01881000    0538
                                     END;                                                       01882000    0538
                                   MX[8]:= ROW[23];                                             01890000    0538
                                   GO TO FLTMX;                                                 01891000    0541
                                                                                                01899000    0541
                  COMMENT          THE APPROPRIATE VALUE IS OBTAINED FOR THOSE MUTUALLY         01900000    0541
                                   EXCLUSIVE SYMPTOM-SETS FOR THE WHITE SHEET OPTION.;          01910000    0541
                                                                                                01919000    0541
                  WHITE:           IF (TE[19] = TE[42])AND  (TE[42] = TE[44])                   01920000    0541
                                       AND (TE[44] = 1)THEN                                     01930000    0546
                                     BEGIN                                                      01931000    0548
                                     MX[7]:= 100;                                               01940000    0549
                                     GO TO X40                                                  01941000    0550
                                     END;                                                       01942000    0551
                                                                                                01949000    0551
                                   T4243:= (1000 - ROW[42] - ROW[43]);                          01950000    0551
                                   T4445:= (1000 - ROW[44] - ROW[45]);                          01960000    0554
                                                                                                01969000    0557
                                   IF (TP[19] = TP[42]) AND (TP[42] = TP[43])                   01970000    0557
                                       AND (TP[43] = TP[44]) AND (TP[44] = TP[45]) THEN         01980000    0561
                                     BEGIN                                                      01981000    0567
                                     MX[7]:= (1000 - ROW[19])×T4243×T4445;                      01990000    0568
                                     GO TO X40                                                  01991000    0572
                                     END;                                                       01992000    0572
                                   IF TP[19] = 1 THEN                                           02000000    0572
                                     BEGIN                                                      02001000    0574
                                     MX[7]:= ROW[19];                                           02010000    0574
                                     GO TO X40                                                  02011000    0577
                                     END;                                                       02012000    0577
                                   IF TP[42] = 1 THEN                                           02020000    0577
                                     BEGIN                                                      02030000    0579
                                     IF TP[44] = 1 THEN                                         02040000    0579
                                       BEGIN                                                    02041000    0581
                                       MX[7]:= ROW[42]×ROW[44];                                 02050000    0581
                                       GO TO X40                                                02051000    0585
                                       END;                                                     02052000    0585
                                     IF TP[45] = 1 THEN                                         02060000    0585
                                       BEGIN                                                    02061000    0587
                                       MX[7]:= ROW[42]×ROW[45];                                 02070000    0587
                                       GO TO X40                                                02071000    0591
                                       END;                                                     02072000    0592
                                     MX[7]:= ROW[42]×T4445;                                     02080000    0592
                                     GO TO X40                                                  02081000    0595
                                     END;                                                       02090000    0595
                                                                                                02099000    0595
                                   IF TP[43] = 1 THEN                                           02100000    0595
                                     BEGIN                                                      02110000    0597
                                     IF TP[44] = 1 THEN                                         02120000    0597
                                       BEGIN                                                    02121000    0599
                                       MX[7]:= ROW[43]×ROW[44];                                 02130000    0599
                                       GO TO X40                                                02131000    0603
                                       END;                                                     02132000    0603
                                     IF TP[45] = 1 THEN                                         02140000    0603
                                       BEGIN                                                    02141000    0605
                                       MX[7]:= ROW[43]×ROW[45];                                 02150000    0605
                                       GO TO X40                                                02151000    0609
                                       END;                                                     02152000    0610
                                     MX[7]:= ROW[43]×T4445;                                     02160000    0610
                                     GO TO X40                                                  02161000    0613
                                     END;                                                       02170000    0613
                                                                                                02179000    0613
                                   IF TP[44] = 1 THEN                                           02180000    0613
                                     BEGIN                                                      02181000    0615
                                     MX[7]:= ROW[44]×T4243;                                     02190000    0615
                                     GO TO X40                                                  02191000    0618
                                     END;                                                       02192000    0619
                                   MX[7]:= ROW[45]×T4243;                                       02200000    0619
                                                                                                02209000    0622
                  X40:             IF TE[40] = 1 THEN                                           02210000    0622
                                     BEGIN                                                      02211000    0623
                                     MX[8]:= 100;                                               02220000    0624
                                     GO TO X2369                                                02221000    0625
                                     END;                                                       02222000    0626
                                                                                                02229000    0626
                                   IF TP[40] = TP[41] THEN                                      02230000    0626
                                     BEGIN                                                      02231000    0628
                                     MX[8]:= 1000 - ROW[40] - ROW[41];                          02240000    0629
                                     GO TO X2369                                                02241000    0633
                                     END;                                                       02242000    0633
                                                                                                02249000    0633
                                   IF TP[40] = 1 THEN                                           02250000    0633
                                     BEGIN                                                      02251000    0635
                                     MX[8]:= ROW[40];                                           02260000    0635
                                     GO TO X2369                                                02261000    0638
                                     END;                                                       02262000    0638
                                   MX[8]:= ROW[41];                                             02270000    0638
                                                                                                02279000    0641
                  X2369:           IF (TE[22] = TE[46]) AND  (TE[46] = 1) THEN                  02280000    0641
                                     BEGIN                                                      02281000    0646
                                     MX[9]:= 100;                                               02290000    0646
                                     GO TO FLTMX                                                02291000    0648
                                     END;                                                       02292000    0648
                                                                                                02299000    0648
                                   T22:= 1000 - ROW[22];                                        02300000    0648
                                   T6789:= 1000 - ROW[46] - ROW[47] - ROW[48] - ROW[49];        02310000    0650
                                                                                                02319000    0655
                                   IF (TP[22] = TP[23]) AND (TP[23] = TP[46])                   02320000    0656
                                       AND (TP[46] = TP[47]) AND (TP[47] = TP[48])              02330000    0660
                                       AND (TP[48] = TP[49]) THEN                               02340000    0665
                                     BEGIN                                                      02341000    0668
                                     MX[9]:= T22×(1000 - ROW[23])×T6789;                        02350000    0669
                                     GO TO FLTMX                                                02351000    0673
                                     END;                                                       02352000    0673
                                                                                                02359000    0673
                                   IF TP[22] = 1 THEN                                           02360000    0673
                                     BEGIN                                                      02370000    0675
                                     FOR  J:= 46 STEP 1 UNTIL 49 DO                             02380000    0675
                                       BEGIN                                                    02390000    0677
                                       IF TP[J] = 1 THEN                                        02400000    0677
                                         BEGIN                                                  02401000    0678
                                         MX[9]:= ROW[J]×ROW[22];                                02410000    0679
                                         GO TO FLTMX                                            02411000    0682
                                         END;                                                   02412000    0683
                                       END;                                                     02420000    0683
                                     MX[9]:= ROW[22]×T6789;                                     02430000    0685
                                     GO TO FLTMX                                                02431000    0688
                                     END;                                                       02440000    0689
                                                                                                02449000    0689
                                   FOR  J:= 46 STEP 1 UNTIL 49 DO                               02450000    0689
                                     BEGIN                                                      02460000    0690
                                     IF TP[J] = 1 THEN                                          02470000    0690
                                       BEGIN                                                    02471000    0691
                                       MX[9]:= ROW[J]×T22;                                      02480000    0692
                                       GO TO FLTMX                                              02481000    0695
                                       END;                                                     02482000    0695
                                     END;                                                       02490000    0695
                                                                                                02499000    0697
                                   MX[9]:= ROW[23];                                             02500000    0697
                                   GO TO FLTMX;                                                 02501000    0700
                                                                                                02509000    0700
                  FLTMX:           FOR  X:= 1 STEP 1 UNTIL TOTX DO                              02510000    0700
                                     BEGIN                                                      02511000    0702
                                     FTMX[X]:= MX[X];                                           02520000    0702
                                     FTMX[X]:= FTMX[X]/100.00                                   02521000    0704
                                     END;                                                       02522000    0706
                                                                                                02529000    0709
                                   FOR  X:= 1 STEP 1 UNTIL TOTX DO                              02530000    0709
                                     PYKX[K]:= PYKX[K]×FTMX[X];                                 02540000    0712
                                                                                                02549000    0718
                  COMMENT          AT THIS POINT, THE ROW-PRODUCT HAS BEEN COMPUTED             02550000    0718
                                   AND A TEST IS MADE TO DETERMINE WHETHER THERE                02560000    0718
                                   ARE MORE ROWS YET TO BE PROCESSED, OR TO PRINT-OUT.;         02570000    0718
                                                                                                02579000    0718
                  TAL10:           K:= K+1;                                                     02580000    0718
                                   IF K ≤ 33 THEN                                               02590000    0719
                                     GO TO XP10;                                                02591000    0720
                                   GO TO NORM;                                                  02600000    0720
                                                                                                02609000    0721
                  COMMENT          THE ROW-PROBABILITIES ARE FIRST NORMALIZED TO GIVE A         02610000    0721
                                   TRUE PERCENTAGE FIGURE AND LINES 4 - 6 ARE PRINTED.;         02620000    0721
                                                                                                02629000    0721
                  NORM:            SUM:= 0.0;                                                   02630000    0721
                                   WRITE(LINE, SHFORM, SHOUT);                                  02660000    0721
                                   FOR  K:= 1 STEP 1 UNTIL 33 DO                                02670000    0725
                                     SUM:= SUM + PYKX[K];                                       02680000    0726
                                   WRITE(LINE, EQFORM, EQOUT);                                  02710000    0730
                                   FOR  K:= 1 STEP 1 UNTIL 33 DO                                02720000    0733
                                     PYX[K]:= PYKX[K] / SUM;                                    02730000    0735
                                                                                                02739000    0740
                                   WRITE(LINE, HEAD);                                           02750000    0740
                                                                                                02759000    0743
                  COMMENT          THE PROBABILITIES ARE NOW PRINTED WHICH ARE ONE              02760000    0743
                                   PERCENT OR GREATER TOGETHER WITH DISEASE I. D. .;            02770000    0743
                                                                                                02779000    0743
                                   K:= 1;                                                       02780000    0743
                  PRINT:           IF PYX[K] < 0.01 THEN                                        02790000    0744
                                     GO TO TALPT;                                               02791000    0745
                                                                                                02799000    0746
                                   GO TO SWOUT[K];                                              02800000    0746
                  Y01:             WRITE(LINE, FORM1, ANS);                                     02850000    0748
                                   GO TO TALPT;                                                 02851000    0751
                  Y02:             WRITE(LINE, FORM2, ANS);                                     02870000    0753
                                   GO TO TALPT;                                                 02871000    0756
                  Y03:             WRITE(LINE, FORM3, ANS);                                     02890000    0756
                                   GO TO TALPT;                                                 02891000    0760
                  Y04:             WRITE(LINE, FORM4, ANS);                                     02910000    0760
                                   GO TO TALPT;                                                 02911000    0764
                  Y05:             WRITE(LINE, FORM5, ANS);                                     02930000    0764
                                   GO TO TALPT;                                                 02931000    0768
                  Y06:             WRITE(LINE, FORM6, ANS);                                     02950000    0768
                                   GO TO TALPT;                                                 02951000    0772
                  Y07:             WRITE(LINE, FORM7, ANS);                                     02970000    0772
                                   GO TO TALPT;                                                 02971000    0776
                  Y08:             WRITE(LINE, FORM8, ANS);                                     02990000    0776
                                   GO TO TALPT;                                                 02991000    0780
                  Y09:             WRITE(LINE, FORM9, ANS);                                     03010000    0780
                                   GO TO TALPT;                                                 03011000    0784
                  Y10:             WRITE(LINE, FORM10, ANS);                                    03030000    0784
                                   GO TO TALPT;                                                 03031000    0788
                  Y11:             WRITE(LINE, FORM11, ANS);                                    03050000    0788
                                   GO TO TALPT;                                                 03051000    0792
                  Y12:             WRITE(LINE, FORM12, ANS);                                    03070000    0792
                                   GO TO TALPT;                                                 03071000    0796
                  Y13:             WRITE(LINE, FORM13, ANS);                                    03090000    0796
                                   GO TO TALPT;                                                 03091000    0800
                  Y14:             WRITE(LINE, FORM14, ANS);                                    03110000    0800
                                   GO TO TALPT;                                                 03111000    0804
                  Y15:             WRITE(LINE, FORM15, ANS);                                    03130000    0804
                                   GO TO TALPT;                                                 03131000    0808
                  Y16:             WRITE(LINE, FORM16, ANS);                                    03150000    0808
                                   GO TO TALPT;                                                 03151000    0812
                  Y17:             WRITE(LINE, FORM17, ANS);                                    03170000    0812
                                   GO TO TALPT;                                                 03171000    0816
                  Y18:             WRITE(LINE, FORM18, ANS);                                    03190000    0816
                                   GO TO TALPT;                                                 03191000    0820
                  Y19:             WRITE(LINE, FORM19, ANS);                                    03210000    0820
                                   GO TO TALPT;                                                 03211000    0824
                  Y20:             WRITE(LINE, FORM20, ANS);                                    03230000    0824
                                   GO TO TALPT;                                                 03231000    0828
                  Y21:             WRITE(LINE, FORM21, ANS);                                    03250000    0828
                                   GO TO TALPT;                                                 03251000    0832
                  Y22:             WRITE(LINE, FORM22, ANS);                                    03270000    0832
                                   GO TO TALPT;                                                 03271000    0836
                  Y23:             WRITE(LINE, FORM23, ANS);                                    03290000    0836
                                   GO TO TALPT;                                                 03291000    0840
                  Y24:             WRITE(LINE, FORM24, ANS);                                    03310000    0840
                                   GO TO TALPT;                                                 03311000    0844
                  Y25:             WRITE(LINE, FORM25, ANS);                                    03330000    0844
                                   GO TO TALPT;                                                 03331000    0848
                  Y26:             WRITE(LINE, FORM26, ANS);                                    03350000    0848
                                   GO TO TALPT;                                                 03351000    0852
                  Y27:             WRITE(LINE, FORM27, ANS);                                    03370000    0852
                                   GO TO TALPT;                                                 03371000    0856
                  Y28:             WRITE(LINE, FORM28, ANS);                                    03390000    0856
                                   GO TO TALPT;                                                 03391000    0860
                  Y29:             WRITE(LINE, FORM29, ANS);                                    03410000    0860
                                   GO TO TALPT;                                                 03411000    0864
                  Y30:             WRITE(LINE, FORM30, ANS);                                    03430000    0864
                                   GO TO TALPT;                                                 03431000    0868
                  Y31:             WRITE(LINE, FORM31, ANS);                                    03450000    0868
                                   GO TO TALPT;                                                 03451000    0872
                  Y32:             WRITE(LINE, FORM32, ANS);                                    03470000    0872
                                   GO TO TALPT;                                                 03471000    0876
                  Y33:             WRITE(LINE, FORM33, ANS);                                    03490000    0876
                                   GO TO TALPT;                                                 03491000    0880
                                                                                                03499000    0880
                  TALPT:           K:= K+1;                                                     03500000    0880
                                   IF K ≤ 33 THEN                                               03510000    0882
                                     GO TO PRINT;                                               03511000    0883
                                                                                                03519000    0883
                  COMMENT          PROGRAM REPEATS TO BEGINNING IF THERE ARE MORE               03520000    0883
                                   CASES TO BE RUN, AND HALTS IF NOT.  THE INITIALS             03530000    0883
                                   H W  APPEAR IN THE A-REG. UPON COMPLETION.;                  03540000    0883
                                                                                                03549000    0883
                                   IF LAST = 0 THEN                                             03550000    0883
                                     GO TO NEWCASE;                                             03551000    0884
                                   COMMENT STOP 7270061216;                                     03560000    0884
                                   COMMENT GO TO NEWCASE;                                       03561000    0884
                  EOF:                                                                          03569000    0884
                  END.                                                                          03570000    0885
                                                                                           2 IS  888 LONG, NEXT SEG    1
PRT(114) = OUTPUT(W) INTRINSIC, SEGMENT NUMBER =    6.
PRT(5) = BLOCK CONTROL INTRINSIC, SEGMENT NUMBER =    7.
PRT(111) = INPUT(W) INTRINSIC, SEGMENT NUMBER =    8.
PRT(113) = GO TO SOLVER  INTRINSIC, SEGMENT NUMBER =    9.
PRT(14) = ALGOL WRITE   INTRINSIC, SEGMENT NUMBER =   10.
PRT(15) = ALGOL READ    INTRINSIC, SEGMENT NUMBER =   11.
PRT(16) = ALGOL SELECT  INTRINSIC, SEGMENT NUMBER =   12.
                                                                                           1 IS    2 LONG, NEXT SEG    0
                                                                                          13 IS   69 LONG, NEXT SEG    0
NUMBER OF ERRORS DETECTED =   0.  COMPILATION TIME =   41 SECONDS.

PRT SIZE =  81; TOTAL SEGMENT SIZE =  1368 WORDS; DISK SIZE =  55 SEGS; NO. PGM. SEGS =  13

ESTIMATED CORE STORAGE REQUIRED =  6726 WORDS.

ESTIMATED AUXILIARY MEMORY REQUIRED =     0 WORDS.


 LABEL  000000000LINE   00120001?COMPILE MRS081/NEW ALGOL GO                                             ALGOL  /MRS081


 LABEL  000000000LINE   00120001?COMPILE MRS081/NEW ALGOL GO                                             MRS081 /NEW


     CASE NUMBER    967     PATIENT  LDR     DATE   5 11 61

     SYMPTOMS PRESENT       3  10  29  34  36  43  48  50

     SYMPTOMS OMITTED       0

     SYMPTOMS USED   W
     EQUATION USED   10
               DISEASE     PROBABILITY
        Y10 V S D - V P S    0.0286
        Y11 V S D - I P S    0.0201
        Y12     V P S        0.7295
        Y13     I P S        0.2151


     CASE NUMBER    967     PATIENT  LDR     DATE   5 11 61

     SYMPTOMS PRESENT       3  10  29  34  36  43  48  50

     SYMPTOMS OMITTED      11   0

     SYMPTOMS USED   W
     EQUATION USED   10
               DISEASE     PROBABILITY
        Y10 V S D - V P S    0.0297
        Y11 V S D - I P S    0.0209
        Y12     V P S        0.7278
        Y13     I P S        0.2146


     CASE NUMBER    967     PATIENT  LDR     DATE   5 11 61

     SYMPTOMS PRESENT       3  10  29  34  36  43  48  50

     SYMPTOMS USED   W
     EQUATION USED    9
               DISEASE     PROBABILITY
        Y02     A S D        0.0172
        Y10 V S D - V P S    0.1981
        Y11 V S D - I P S    0.2311
        Y12     V P S        0.4239
        Y13     I P S        0.1224


     CASE NUMBER    967     PATIENT  LDR     DATE   5 11 61

     SYMPTOMS PRESENT       3  10  17  21  29  34  36

     SYMPTOMS OMITTED       0

     SYMPTOMS USED   B
     EQUATION USED   10
               DISEASE     PROBABILITY
        Y02     A S D        0.0158
        Y10 V S D - V P S    0.0595
        Y11 V S D - I P S    0.0418
        Y12     V P S        0.6689
        Y13     I P S        0.1932


     CASE NUMBER    967     PATIENT  LDR     DATE   5 11 61

     SYMPTOMS PRESENT       3  10  17  21  29  34  36

     SYMPTOMS OMITTED      11   0

     SYMPTOMS USED   B
     EQUATION USED   10
               DISEASE     PROBABILITY
        Y02     A S D        0.0164
        Y10 V S D - V P S    0.0616
        Y11 V S D - I P S    0.0433
        Y12     V P S        0.6648
        Y13     I P S        0.1920


     CASE NUMBER    967     PATIENT  LDR     DATE   5 11 61

     SYMPTOMS PRESENT       3  10  17  21  29  34  36

     SYMPTOMS USED   B
     EQUATION USED    9
               DISEASE     PROBABILITY
        Y02     A S D        0.0113
        Y10 V S D - V P S    0.3478
        Y11 V S D - I P S    0.4057
        Y12     V P S        0.1675
        Y13     I P S        0.0484


     CASE NUMBER    967     PATIENT  LDR     DATE   5 11 61

     SYMPTOMS PRESENT       3  10  17  21  29  34  36

     SYMPTOMS USED   B
     EQUATION USED    9
               DISEASE     PROBABILITY
        Y02     A S D        0.0113
        Y10 V S D - V P S    0.3478
        Y11 V S D - I P S    0.4057
        Y12     V P S        0.1675
        Y13     I P S        0.0484


 LABEL  000000000LINE   00120001?COMPILE MRS081/NEW ALGOL GO                                             MRS081 /NEW
